:020000040800F2
:100000000050002019260008C1250008C32500085B
:10001000C5250008C7250008C92500080000000004
:100020000000000000000000000000001177000840
:10003000CB25000800000000A1770008CD250008AE
:100040006126000861260008612600086126000874
:100050006126000861260008612600086126000864
:100060006126000861260008612600086126000854
:100070006126000861260008612600086126000844
:100080006126000861260008612600086126000834
:10009000E5250008612600086126000861260008A1
:1000A0006126000861260008612600086126000814
:1000B000612600086126000861260008F125000875
:1000C00061260008612600086126000861260008F4
:1000D00061260008FD2500080926000861260008A1
:1000E0006126000861260008612600080000000063
:1000F0000000000000000000000000000000000000
:0C01000000000000000000005FF808F1A3
:1001100010B5054C237833B9044B13B10448AFF341
:1001200000800123237010BD90010020000000001A
:10013000DC7E000808B5034B1BB103490348AFF34D
:10014000008008BD0000000094010020DC7E000853
:10015000034613F8012B002AFBD1181A0138704707
:1001600080F0004002E000BF81F0004142001FBF6C
:100170005FEA410392EA030F7FEA226C7FEA236C75
:100180006AD04FEA1262D2EB1363C1BFD21841406A
:1001900048404140B8BF5B42192B88BF704710F000
:1001A000004F40F4000020F07F4018BF404211F0A3
:1001B000004F41F4000121F07F4118BF494292EA0B
:1001C000030F3FD0A2F1010241FA03FC10EB0C0037
:1001D000C3F1200301FA03F100F0004302D54942C4
:1001E00060EB4000B0F5000F13D3B0F1807F06D371
:1001F00040084FEA310102F10102FE2A51D2B1F169
:10020000004F40EBC25008BF20F0010040EA03005D
:100210007047490040EB0000013A28BFB0F5000FDD
:10022000EDD2B0FA80FCACF1080CB2EB0C0200FA93
:100230000CF0AABF00EBC25052421843BCBFD040E2
:100240001843704792F0000F81F4000106BF80F45C
:1002500000000132013BB5E74FEA41037FEA226C1F
:1002600018BF7FEA236C21D092EA030F04D092F0EA
:10027000000F08BF0846704790EA010F1CBF00201E
:10028000704712F07F4F04D1400028BF40F000407B
:10029000704712F100723CBF00F50000704700F09B
:1002A000004343F0FE4040F4000070477FEA2262C2
:1002B00016BF08467FEA23630146420206BF5FEA93
:1002C000412390EA010F40F4800070474FF0000393
:1002D00004E000BF10F0004348BF40425FEA000C5A
:1002E00008BF704743F0964301464FF000001CE002
:1002F00050EA010208BF70474FF000030AE000BF58
:1003000050EA010208BF704711F0004302D5404295
:1003100061EB41015FEA010C02BF84460146002007
:1003200043F0B64308BFA3F18053A3F50003BCFA22
:100330008CF2083AA3EBC25310DB01FA02FC6344CF
:1003400000FA02FCC2F12002BCF1004F20FA02F2D6
:1003500043EB020008BF20F00100704702F12002C9
:1003600001FA02FCC2F1200250EA4C0021FA02F22A
:1003700043EB020008BF20EADC7070474FF0FF0C2F
:100380001CEAD0521EBF1CEAD15392EA0C0F93EA2A
:100390000C0F6FD01A4480EA010C400218BF5FEACC
:1003A00041211ED04FF0006343EA501043EA51113F
:1003B000A0FB01310CF00040B1F5000F3EBF490039
:1003C00041EAD3715B0040EA010062F17F02FD2A3D
:1003D0001DD8B3F1004F40EBC25008BF20F0010020
:1003E000704790F0000F0CF0004C08BF49024CEA37
:1003F000502040EA51207F3AC2BFD2F1FF0340EAC9
:10040000C250704740F400004FF00003013A5DDC39
:1004100012F1190FDCBF00F000407047C2F100027A
:10042000410021FA02F1C2F1200200FA02FC5FEA67
:10043000310040F1000053EA4C0308BF20EADC70B1
:10044000704792F0000F00F0004C02BF400010F423
:10045000000F013AF9D040EA0C0093F0000F01F0D0
:10046000004C02BF490011F4000F013BF9D041EAF2
:100470000C018FE70CEAD15392EA0C0F18BF93EAF4
:100480000C0F0AD030F0004C18BF31F0004CD8D11E
:1004900080EA010000F00040704790F0000F17BFA5
:1004A00090F0004F084691F0000F91F0004F14D0EB
:1004B00092EA0C0F01D142020FD193EA0C0F03D143
:1004C0004B0218BF084608D180EA010000F0004046
:1004D00040F0FE4040F40000704740F0FE4040F421
:1004E000400070474FF0FF0C1CEAD0521EBF1CEAC0
:1004F000D15392EA0C0F93EA0C0F69D0A2EB0302DE
:1005000080EA010C49024FEA402037D04FF0805377
:1005100043EA111143EA10130CF000408B4238BF3C
:100520005B0042F17D024FF4000C8B4224BF5B1A4A
:1005300040EA0C00B3EB510F24BFA3EB510340EA98
:100540005C00B3EB910F24BFA3EB910340EA9C0046
:10055000B3EBD10F24BFA3EBD10340EADC001B01B6
:1005600018BF5FEA1C1CE0D1FD2A3FF650AF8B425A
:1005700040EBC25008BF20F0010070470CF0004C67
:100580004CEA50207F32C2BFD2F1FF0340EAC25092
:10059000704740F400004FF00003013A37E792F053
:1005A000000F00F0004C02BF400010F4000F013AB1
:1005B000F9D040EA0C0093F0000F01F0004C02BFAC
:1005C000490011F4000F013BF9D041EA0C0195E715
:1005D0000CEAD15392EA0C0F08D142027FF47DAFAE
:1005E00093EA0C0F7FF470AF084676E793EA0C0F9E
:1005F00004D14B023FF44CAF08466EE730F0004C9C
:1006000018BF31F0004CCAD130F000427FF45CAF2B
:1006100031F000437FF43CAF5FE700BF4FF0FF3C99
:1006200006E000BF4FF0010C02E000BF4FF0010CEC
:100630004DF804CD4FEA40024FEA41037FEA226CB5
:1006400018BF7FEA236C11D001B052EA530C18BFD7
:1006500090EA010F58BFB2EB030088BFC81738BF3C
:100660006FEAE17018BF40F0010070477FEA226C2A
:1006700002D15FEA402C05D17FEA236CE4D15FEA26
:10068000412CE1D05DF8040B704700BF844608465A
:100690006146FFE70FB5FFF7C9FF002848BF10F11B
:1006A000000F0FBD4DF808EDFFF7F4FF0CBF012060
:1006B00000205DF808FB00BF4DF808EDFFF7EAFFEA
:1006C00034BF012000205DF808FB00BF4DF808EDA5
:1006D000FFF7E0FF94BF012000205DF808FB00BF9A
:1006E0004DF808EDFFF7D2FF94BF012000205DF820
:1006F00008FB00BF4DF808EDFFF7C8FF34BF01202D
:1007000000205DF808FB00BF42000ED2B2F1FE4FA0
:100710000BD34FF09E03B3EB126209D44FEA0023D0
:1007200043F0004323FA02F070474FF00000704797
:1007300012F1610F01D1420202D14FF0FF30704738
:100740004FF00000704700BF054B5A89EF2A05D9CA
:100750001888A72894BF0020012070470020704708
:1007600034090020054B02465978814204D0587064
:100770004021034802F07AB9704700BFB001002061
:100780000008014038B50024044D2C6001F0ACFF96
:1007900068602046FFF7E6FF204638BDB001002024
:1007A000044A1178814204D0107010B99070FFF79C
:1007B000D9BF7047B0010020024B187800B198787B
:1007C000704700BFB001002070B501F08DFF274CCD
:1007D0006368C31A632B01D8A07870BD2578244EB6
:1007E00060605DB301F030FD10B1FFF7ADFFE07068
:1007F000A378032B07D8DFE803F017020919E37881
:100800000BB10223A37001233370E5E7012001F04F
:10081000A9FD38B1174B588B0128F4D1FFF7A2FF7F
:100820000323EFE7FFF79EFF0123EBE7E0780028C3
:10083000E9D10123A370FFF795FFE4E733787BB19B
:10084000284601F08FFD58B11C2229460948357011
:10085000E57007F017FB2A460221074802F006F967
:100860000020A070FFF77EFFB6E700BFB0010020B8
:10087000AC010020340900200008014010B500231D
:10088000A52410490A1F0B604B600B7201F8044C41
:100890004021517008219070D1701046194612F80D
:1008A000014B013321440B2BC9B2F8D101736423EE
:1008B0000D220549054804F05EFDB0FA80F04009BC
:1008C00010BD00BFFF020020FB02002050060020E8
:1008D0002DE9F843044630B3342200212C4807F0B8
:1008E000D1FA342200212B4807F0CCFA0D22002344
:1008F000DFF8A480DFF8A49062432549284888F8EF
:10090000003089F8003005F076F860B901F0ECFEAF
:10091000C8260746664399F8003003F0FF052BB15F
:100920001F4804F045FE0020BDE8F88301F0DCFE1E
:10093000C01B8642F4D3012006F0CFFA98F80030AD
:1009400003F0FF00002BE6D0124A11490B46164671
:1009500001F10C0753F804CBBB4246F804CBF9D1A4
:100960001B781746337000231E4617F801CB01365B
:1009700063440C2EDBB2F8D1167B9E42D3D10135F5
:10098000AC4202F10D0201F10D01DFD8CCE700BF4E
:1009900093020020C70200200D0300200C0300205A
:1009A00050060020F8B59020FFF768FF10B9002529
:1009B0002846F8BD0120FFF78BFF05460028F6D03A
:1009C000124F3C8964BAA4B2A4F5EA44303C2046F4
:1009D000FFF780FC0E49FFF785FD0E49FFF762FE29
:1009E0000028E4D17E8976BAB0B2FFF773FC0849DB
:1009F000FFF778FD0849FFF77DFE0028D7D1BA88B8
:100A0000064B52BA1A825C829E82D1E7C70200204E
:100A10000000204100803BC50000C842B801002012
:100A200010B59120FFF72AFF08B9002010BD012062
:100A3000FFF74EFF0028F8D0074C084AA179A38899
:100A40009176B4F807105BBA49BA647AD3825B1A1C
:100A50001183D4761377E9E7C7020020B80100209C
:100A600008B59220FFF70AFF08B9002008BD012051
:100A7000FFF72EFF0028F8D0054A13799279134426
:100A8000503B044A03EBD3735B105377EEE700BF90
:100A9000C7020020B801002008B59320FFF7EEFE42
:100AA00008B9002008BD0120FFF712FF0028F8D088
:100AB0000D490E4B0A79012A02D0022A00D002B950
:100AC0009A774A79003A18BF0122DA778A79003A90
:100AD00018BF012283F82020CA7983F821204A898F
:100AE00052BA5A84DEE700BFC7020020B8010020D6
:100AF00008B59420FFF7C2FE08B9002008BD012008
:100B0000FFF7E6FE0028F8D00B4A0C4B117983F86A
:100B10002410517983F825109179003918BF0121EB
:100B200083F82610D179927A003918BF012183F811
:100B3000282083F82710E1E7C7020020B801002031
:100B4000F8B5284D95F82430013B0F2B47D8952058
:100B5000FFF794FE08B90120F8BD032395F824405F
:100B60000234B4FBF3F4E4B22046FFF7B1FEB0B3B5
:100B70000026334695F824701B4AF1B28C42EAD91C
:100B80009F421ED992F805E092F806C0581CC0B2E8
:100B900005EB43014CEA0E2C8742A1F82AC00FD97D
:100BA00092F807E092F808C0991CC9B205EB400022
:100BB0004CEA0E2C8F42A0F82AC005D80B4600E064
:100BC000034601360D32D8E792F809C0907A033314
:100BD00005EB410140EA0C20DBB24885F1E700203B
:100BE000BAE700BFB8010020C702002038B5104C9A
:100BF00094F82530013B032B01D9002038BD962005
:100C0000FFF73CFE0028F8D00120FFF761FE002826
:100C1000F3D00023074994F825508934DAB295427D
:100C2000ECD911F8012F0133283A04F8012FF5E728
:100C3000B8010020CB0200202DE9F8431E4D95F8A5
:100C40002430013B0F2B02D90020BDE8F883972008
:100C5000FFF714FE0028F7D00120FFF739FE002827
:100C6000F2D0002306221C4695F824E0DFF84CC0A1
:100C7000002604F199071CF8018F2F44A64511D9CD
:100C800048FA06F101F00109C90748BF013306F12E
:100C9000010604F1010448BFDBB2082EE4B207F8F4
:100CA000019FEBD1013A12F0FF02E1D1003B18BFE6
:100CB000012385F8CA30C8E7B8010020CA02002025
:100CC00038B59820FFF7DAFD08B9002038BD0120BB
:100CD000FFF7FEFD0028F8D000240025B849B94BE5
:100CE0000A79C3E93445940740F1248101240025A1
:100CF000C3E93445140740F12281D3F8D04044F0D1
:100D00000404C3F8D040940640F12181D3F8D040C8
:100D100044F01004C3F8D040D40900F02081D3F887
:100D2000D02042F04002C3F8D0204A79940740F125
:100D30001E81D3F8D04044F48074C3F8D040140727
:100D400040F11D81D3F8D04044F48064C3F8D04012
:100D5000940640F11C81D3F8D04044F48054C3F889
:100D6000D040D40900F01B81D3F8D02042F4804257
:100D7000C3F8D0208A79940740F11981D3F8D04084
:100D800044F48034C3F8D040140740F11D81D3F8F7
:100D9000D04044F48024C3F8D040940640F11C8134
:100DA000D3F8D04044F48014C3F8D040D40900F004
:100DB0001B81D3F8D02042F48002C3F8D020CA7936
:100DC000940740F11981D3F8D04044F08074C3F8FF
:100DD000D040140740F11881D3F8D02042F080624F
:100DE000C3F8D0200A7AD40742BFD3F8D04044F0E9
:100DF0008054C3F8D040950742BFD3F8D04044F0A8
:100E00000054C3F8D040540742BFD3F8D04044F058
:100E10008044C3F8D040150742BFD3F8D04044F017
:100E20000044C3F8D040D40642BFD3F8D44044F0C5
:100E30000104C3F8D440950642BFD3F8D44044F02F
:100E40000204C3F8D440540642BFD3F8D44044F05F
:100E50000404C3F8D440D2091EBFD3F8D42042F012
:100E60000802C3F8D4204A7AD50742BFD3F8D44049
:100E700044F01004C3F8D440940742BFD3F8D440E0
:100E800044F02004C3F8D440550742BFD3F8D440FF
:100E900044F04004C3F8D440140742BFD3F8D44010
:100EA00044F08004C3F8D440D50642BFD3F8D44000
:100EB00044F48074C3F8D440940642BFD3F8D440BD
:100EC00044F40074C3F8D440550642BFD3F8D4406C
:100ED00044F48064C3F8D440D2091EBFD3F8D420B0
:100EE00042F40062C3F8D4208B7ADC0741BF354955
:100EF000D1F8D42042F48052C1F8D420990741BFE0
:100F00003049D1F8D42042F40052C1F8D4205A0715
:100F100041BF2C49D1F8D42042F48042C1F8D420FA
:100F20001B0741BF274AD2F8D43043F40043C2F82C
:100F3000D430CBE6D5077FF5DDAE0224D7E65507E2
:100F40007FF5E1AED3F8D04044F00804D9E6D506E9
:100F50007FF5E2AED3F8D04044F02004DAE69209FF
:100F60003FF4E3AED3F8D02042F08002DBE6D507B1
:100F70007FF5E5AED3F8D04044F40074DDE65507C4
:100F80007FF5E6AED3F8D04044F40064DEE6D50643
:100F90007FF5E7AED3F8D04044F40054DFE6920981
:100FA0003FF4E8AED3F8D02042F40042E0E6D507A3
:100FB0007FF5EAAED3F8D04044F40034E2E600BF57
:100FC000C7020020B801002055077FF5E6AED3F830
:100FD000D04044F40024DEE6D5067FF5E7AED3F832
:100FE000D04044F40014DFE692093FF4E8AED3F8B1
:100FF000D02042F40002E0E6D5077FF5EAAED3F850
:10100000D04044F00074E2E655077FF5EBAED3F82C
:10101000D02042F00062E3E608B55920FFF72EFC2D
:1010200008B9002008BD0120FFF752FC0028F8D0C5
:10103000074A084B918849BA1980D18849BA9980E2
:101040001189528949BA52BA5980DA80EAE700BF59
:10105000C7020020B801002008B55A20FFF70EFC97
:1010600008B9002008BD0120FFF732FC0028F8D0A5
:10107000074A084B918849BA1981D18849BA9981A0
:101080001189528949BA52BA5981DA81EAE700BF17
:10109000C7020020B801002070470000D8220021BC
:1010A000014806F0EFBE00BFB80100200322014B4B
:1010B0009A777047B8010020014B1860704700BF55
:1010C000080300200268034B9A4202BF0122024B30
:1010D0001A707047003801400D0300200268034B6E
:1010E0009A4202BF0122024B1A7070470038014039
:1010F0000C030020034B0360034B0B608023136041
:10110000704700BF100500201003002070B5642652
:1011100086B00096044615468DF80F10012301791C
:101120000DF10F02006801F079FE58B90096022314
:101130002179206805AA01F04BFF18B9BDF81430D9
:101140005BBA2B8006B070BD1FB5130A8DF80D3049
:10115000642300938DF80C108DF80E200179032381
:1011600003AA006801F05AFE05B05DF804FB000018
:1011700070B50446027143610160049811491D462F
:10118000FFF7B0F92946A0600646FFF7F7F80146D9
:101190000D48FFF7A7F9FFF7B7FA85B20B493046BC
:1011A0002582FFF7EBF82A46E06005212046FFF78D
:1011B000CBFF2046BDE8704043F69F120021FFF7A9
:1011C000C3BF00BF00FEFF46ACC5273D0000A041E5
:1011D00037B50D460DF106020221FFF797FF0446D1
:1011E00060B9BDF80600C008FFF774F84FF0814100
:1011F000FFF7C4F80349FFF775F92860204603B0EC
:1012000030BD00BF00007A4473B50446028A0E4622
:101210000521FFF799FF042120460DF10602FFF793
:1012200075FF054638B9BDF90600FFF753F8A16808
:10123000FFF7A4F83060284602B070BD73B50446CD
:10124000028A0E460521FFF77FFF032120460DF19C
:101250000602FFF75BFF054638B9BDF80600FFF749
:1012600039F8E168FFF78AF83060284602B070BDAF
:1012700080B506F033FC1F4F1F4D204E388AFFF714
:1012800029F81F4C1F4B19682378EBB9FFF732FA86
:1012900080B101228021284601F0E8FB01221A4892
:1012A000114601F0E3FB01220221174801F0DEFBA9
:1012B0000123237030464FF4005101F0DCFB4FF462
:1012C000FA7005F00AFED9E7FFF7F6F90028F1D029
:1012D00000228021284601F0C9FB002201210A4892
:1012E00001F0C4FB00220221074801F0BFFB0023EC
:1012F000DFE700BFB80100200008014000100140F6
:101300006405002000000020000C01400D22002197
:1013100080B5424806F0B6FD4148FFF7C7FE414C94
:10132000414D23780A2B1AD8DFE803F006353D40FB
:101330004346494C4F5D6900FFF734FB3B4F06467F
:1013400088B101222846114601F090FB0122344B5E
:1013500083F8CB2000233B70237813442370322082
:1013600005F0BBFDDDE702460121284601F07EFBCA
:101370003B782670092B02D801333B70EFE7284BEE
:1013800083F8CB60FFF78AFE3E70294B1B68002B69
:10139000E5D09847E3E7FFF743FB10B12078013031
:1013A000C0B22070DBE7FFF75BFBF6E7FFF774FBEB
:1013B000F3E7FFF79DFBF0E7FFF7C2FBEDE7FFF771
:1013C00015FCEAE7FFF738FCE7E7FFF779FC10B117
:1013D00020780130C0B2174B20701B78002BD4D07E
:1013E00000232370D1E7134B1B78002BCDD1FFF7DF
:1013F00013FE10B120780130C0B22070C5E70D4E49
:1014000033780BB9FFF728FE00232370084B1B68C5
:1014100003B1984701233370A1E700BFFB0200200E
:10142000B801002091020020000801409202002033
:10143000080300209002002008B5FFF7C5F96420DA
:1014400005F04BFDF9E7000042F2107508B50A4CB3
:1014500000F084FE01F048F9D4F80C32C01AA8421A
:1014600005D900F04DFE01F03FF9C4F80C020A2046
:1014700005F033FDECE700BFF006002030B595B075
:10148000142200210CA806F0FDFC142210250021D6
:101490000DEB020006F0F6FC2A46002101A806F03A
:1014A000F1FC02244FF480330122CDE91143CDE950
:1014B0000A234FF4E0130AA80E92139303F09AFB49
:1014C00008B172B6FEE70F23CDE905344FF480630F
:1014D0000790CDE90830214605A803F04DFD08B17D
:1014E00072B6FEE74FF4800301A80195049303F060
:1014F000FFFD08B172B6FEE715B030BD80B5A2B0F1
:1015000001F0D4F8FFF7BAFF102200211BA806F063
:10151000B9FC844B4FF460419A69834842F0100251
:101520009A619A69002402F010020292029A9A6962
:10153000012642F020029A619A69022502F02002F7
:101540000392039A9A6942F004029A619A6902F03E
:1015500004020492049A9A6942F008029A619B6913
:10156000002203F008030593059B01F07FFA002297
:10157000C3216E4801F07AFA002223216C4801F061
:1015800075FA4FF4604368481BA9CDE91B36CDE9D5
:101590001D4501F091F9C32364481BA9CDE91B3611
:1015A000CDE91D4501F088F9232361481BA9CDE948
:1015B0001B36CDE91D4501F07FF94FF401435B482F
:1015C0001BA9CDE91B341D9401F076F91823584866
:1015D0001BA9CDE91B340C261D9401F06DF94FF4C5
:1015E000165354485449C0E90244C0E90013C0E905
:1015F00005640461C46103F08FFE08B172B6FEE7B2
:101600004FF4E1344D4D4E4BC5E90200C5E90406E7
:10161000C5E906002846C5E9003403F07DFE03460F
:1016200008B172B6FEE74748474AC0E90233C0E94D
:101630000024C0E90436C0E9063303F06DFE08B1AA
:1016400072B6FEE7414C424A424BC4E90200C4E98B
:1016500000234FF48043C4E90600C4E9043020624B
:10166000204601F033FB074608B172B6FEE73A4860
:10167000FFF722FD2846394D00F0BAF8FFF782F84F
:1016800021468022364B37480095FFF771FD2146F1
:101690008222334B34480095FFF76AFD2146334CD4
:1016A00088222F4B3248009506ADFFF761FD0FCC25
:1016B0000FC594E8070085E80700394606A805F03D
:1016C000E4FB2C4B04F10C060DAD18600FCE0FC5DA
:1016D00096E8070085E8070039460DA805F0D5FB18
:1016E000254B04F1280614AD18600FCE0FC596E8FF
:1016F000070085E80700394614A805F0C6FB1F4B14
:101700001BAD443418600FCC0FC594E8070085E882
:10171000070039461BA805F0B8FB194B186005F007
:10172000AFFBFEE70010024000100140000801403E
:10173000000C01405006002000380140080600203F
:1017400000440040C00500200048004098060020EA
:1017500000540040A086010099100008000040409D
:10176000CDCCCC3D9805002080050020F47E0008FB
:1017700068050020BC050020B8050020B405002045
:10178000B00500200368054A934201D100F07EBCF9
:10179000034A934201D1FFF795BC704700440040D3
:1017A0000038014003680D4A10B59342044603D146
:1017B000BDE8104000F0BEBC094A93420DD1094873
:1017C0004FF4004101F057F90022074B2046BDE8D5
:1017D000104083F8CB20FFF781BC10BD00440040CF
:1017E0000038014000100140B801002072B6FEE749
:1017F00038B558B30025164B164C1B782060237162
:1018000084F80A52A4F80652A4F8085200F06CFFBB
:101810004FF480722946C4F80C02601D06F032FBBA
:101820004FF48072294604F2051006F02BFB206865
:1018300090F84230202B01D003F042FEBDE8384042
:101840000549012251F8050C04F0D5B8012038BD36
:1018500004000020F0060020F506002002460144A6
:101860004FF6FF7030B5094D8A4200D130BD0824D3
:1018700012F8013B584040F300032B4083EA500329
:1018800098B2631E13F0FF04F5D1EDE701A0FFFF4E
:10189000032938B504460D460ED9023989B2FFF73F
:1018A000DDFF611911F8012C11F8023C43EA022313
:1018B0001B1A5842584138BD0020FCE770B50C4651
:1018C0000646FFF7CBFF1E4D33193055000A5870FE
:1018D0002868023403F06CFEA4B2012000F00AFF75
:1018E000332C224634BF6423C8233146286803F0D2
:1018F00042FD044650B14FF40041124801F0BBF8DC
:10190000286803F0DDFD0724204670BD02464FF431
:1019100080410C4801F0AAF821464FF48072681DFE
:10192000A5F8064285F80A4206F0ACFA012000F05C
:10193000E1FE2946012251F8050B04F05CF8E3E7CB
:10194000F006002000100140074B60F07F001A797C
:1019500083F8060183F8071103F20510032183F8C9
:101960000521FFF7ABBF00BFF00600204E2813B5DE
:101970001AD9A0F58073082B01D9002411E06FF467
:1019800080731844072800F29C81DFE810F09D0165
:10199000A001A301D20108000800A601BF0140F286
:1019A0000114204602B010BD4E28E6D801A353F81A
:1019B00020F000BFF11A0008F71A0008FD1A00080D
:1019C000031B0008091B00080F1B0008151B00085B
:1019D0001B1B0008211B0008271B00082F1B0008E9
:1019E000351B00083B1B0008431B00084B1B00086D
:1019F000511B0008591B0008611B0008691B0008E7
:101A0000711B0008891B0008891B0008891B00083E
:101A1000891B0008891B0008891B0008A11B0008FE
:101A2000A11B0008B91B0008B91B0008B91B00085E
:101A3000B91B0008B91B0008B91B0008791B000876
:101A4000811B0008D11B0008D71B0008DD1B000804
:101A5000E31B0008E91B0008EF1B0008F51B00084A
:101A6000FB1B00087B1900087B1900087B19000884
:101A70007B190008011C0008051C0008091C00084F
:101A80000D1C0008111C0008151C0008191C00087A
:101A90001D1C0008211C0008251C0008291C00082A
:101AA0002D1C0008311C0008371C00083B1C0008D6
:101AB000431C0008491C0008671C0008711C000832
:101AC0007B1C0008811C0008871C00088D1C000876
:101AD000931C0008991C00089F1C0008A91C000802
:101AE000AD1C0008B31C0008B71C0008BB1C000894
:101AF000914B1C8A55E7904B5C8A52E78E4B9C8A2F
:101B00004FE78D4BDC8A4CE78B4B1C8B49E78A4BAC
:101B10009C7E46E7884BDC7E43E7874B1C7F40E793
:101B2000854B5C7F3DE7844B93F8CB4039E7824B94
:101B30009C7F36E7804BDC7F33E77F4B93F8204078
:101B40002FE77D4B93F821402BE77B4B5C8C28E7FC
:101B5000794B93F8244024E7774B93F8254020E70E
:101B6000754B93F826401CE7734B93F8274018E712
:101B7000714B93F8284014E76F4B93F8CA4010E775
:101B80006D4BB3F8D0400CE76B4B143893F824201E
:101B9000C0B282427FF6F1AE03EB40035C8D00E7FA
:101BA000654B1A3893F82520C0B282427FF6E5AE25
:101BB000034493F88A40F4E65F4B1C3893F82420E2
:101BC000C0B282427FF6D9AE034493F89A40E8E669
:101BD000594B1C88E5E6584B5C88E2E6564B9C88DE
:101BE000DFE6554BDC88DCE6534B1C89D9E6524BCB
:101BF0005C89D6E6504B9C89D3E64F4BDC89D0E616
:101C00004E4BE6E74D4BE7E74C4BE8E74B4BE9E73C
:101C10004A4BEAE7494BEBE7484BECE7474B68E7B1
:101C2000464B69E7454B6AE7444B6BE7434B6CE730
:101C3000424B5C8BB5E6414BE0E7FEF7BDFD044649
:101C4000AFE63F4B1C78ACE63E4801A9FFF7C0FA6F
:101C500000287FF492AE3C490198FEF78FFBFEF717
:101C600053FD84B29DE6374801A9FFF7CDFAEFE7AF
:101C7000344801A9FFF7E2FAEAE7344801A9E5E7A9
:101C8000324801A9F1E7314801A9F3E7304801A939
:101C9000DCE72F4801A9E8E72D4801A9EAE702217E
:101CA0002C4800F0DDFECAE70121F9E780212A482F
:101CB000F7E72021F4E74021F9E7284B2849186885
:101CC000CBE7284B1C796CE6274B5C7869E6264B02
:101CD0009C7866E6244BDC7863E6174B93F8CB00E0
:101CE000164B5B8B0BB140F00200204B40211B7860
:101CF0005B4203F0040340EA0304174800F0B0FE1F
:101D000000283FF44EAE44F00800AAE70A4B93F8CF
:101D1000CB00D3E934231A43084B80F001045B8BDA
:101D200018BF44F00204002B7FF43BAE44F00400E3
:101D300097E7022435E600BFB801002034090020EF
:101D4000B0010020980500200000204180050020FF
:101D500068050020000C0140000801400000002040
:101D60000000C842F00600200400002064050020A6
:101D700008B503463F2B084642D017D8312B35D043
:101D80000DD82B2B03D8232B3FD8052006E0302B72
:101D9000FBD100F0F7FA002837D1062008BD3C2B14
:101DA00027D03D2BF1D100F0E5FAF4E74E2B2ED0F1
:101DB0006FF4807213449AB2082AE6D8082BE4D84C
:101DC00001A252F823F000BF2F1E00083B1E00089E
:101DD000451E00088B1D00088B1D00088B1D000888
:101DE0008B1D00088B1D0008291E000800F0D7FA83
:101DF000D1E7174B1B78002BCFD000F0B3FACAE71E
:101E0000081E18BF0120FEF7CBFC0020C6E7A1F595
:101E10007A73B3F57A7FC0D8FEF758FA0D49FEF70A
:101E200061FB0D4B1860F0E70128B6D1EDE7431ECA
:101E3000042BB2D8094B5870E7E70228ADD8074BFE
:101E40009870E2E7431E012BA7D8044BD870DCE75B
:101E5000B00100200000C842000000200400002063
:101E600008292DE9F0413AD18588B0F802806DBA91
:101E7000ADB26B1E98FA98F87C2B1FFA88F806D939
:101E800003210846FFF760FD0620BDE8F081154CF0
:101E9000002722796E0084F80521032284F8076167
:101EA00084F8062108EB070080B2FFF75FFD0137D9
:101EB000030A84F80831BBB2AB4284F8090104F18B
:101EC0000204EFD30336322DB6B202D9022000F05D
:101ED00011FC3146BDE8F0410348FFF7EFBC032099
:101EE000D3E700BFF0060020F5070020082938B529
:101EF00005461CD18188408849BA40BA89B280B26F
:101F0000FFF736FF044660B1052808D006280CBF4D
:101F1000032104210620FFF717FD204638BD0221CA
:101F2000F8E72846BDE838400621FFF7C7BC032480
:101F3000F3E7000008292DE9F04104464FD98688CF
:101F4000478876BAB6B2721E7A2A837902D8B3EB82
:101F5000460F07D003211020FFF7F6FC0625284680
:101F6000BDE8F0810933994239D14FF000087FBABA
:101F7000BFB2E179237A07EB080043EA012180B27E
:101F8000FFF7F6FE054658B1052807D006280CBF16
:101F9000032104211020FFF7D7FCE0E70221F9E735
:101FA00008F101081FFA88F39E4204F10204E0D808
:101FB0000C480621027980F8087180F8052110226A
:101FC00080F806213A0A80F8072180F8095180F844
:101FD0000A61BDE8F04100F20510FFF76FBC032570
:101FE000BDE700BFF0060020F8B50124234D03290A
:101FF00006460F462C7008D821484FF4004100F0E7
:102000003AFD002303202B70F8BD1E4B02781B798C
:102010009A4202D000202870F6E7FFF739FC10B989
:1020200028700220F0E7164822464FF4804100F065
:102030001DFD7078062808D0102816D0032805D07A
:102040000121FFF781FC0420DEE702240E4B1B79FF
:102050001C42F5D00628394609D0102830460AD04F
:10206000FFF7FEFE00232B70CEE70424EEE7304698
:10207000FFF73CFFF6E7FFF75DFFF3E7EC06002014
:1020800000100140F00600200400002038B51B4C71
:102090002568854231D100F027FBB4F80622C4F848
:1020A0000C02FE2A25D82B685968531C9BB2224487
:1020B000032BA4F80632517111D9A279062A03D054
:1020C000102A03D0032A0AD1082203E0062B06D9DE
:1020D000E27A0932934202D3012384F80A32B4F837
:1020E00006122068053121440122BDE8384003F082
:1020F00082BC0023A4F80632EFE738BDF0060020CA
:1021000038B500230A4C2546A4F8063284F80A3272
:1021100000F0EAFAC4F80C0255F8050B03F0D0F908
:10212000294620680122BDE8384003F064BC00BFA6
:10213000F006002008B5074B1B68834208D14FF416
:102140000041054800F097FCBDE80840FFF7D8BF04
:1021500008BD00BFF00600200010014038B51B4C40
:1021600094F80A52B4F80612EDB171B1032902D9FC
:10217000601DFFF739FF00214FF480721448A4F866
:10218000061284F80A1205F07DFE206890F84230AD
:10219000202B1AD1B4F80632BBB9BDE83840012271
:1021A0000B4903F028BC0029EFD000F09DFAD4F8C9
:1021B0000C32C01A3228E8D94FF480722946A4F8AC
:1021C000065284F80A52601DDDE738BDF006002093
:1021D000F5060020024601444FF6FF7030B5084D69
:1021E000082412F8013B584040F300032B4083EAD7
:1021F0005003013C98B2F7D18A42F1D130BD00BF03
:1022000001A0FFFF00220E4B10B51A609A80012238
:102210009C1E03F8022C0623E070617120461946CB
:102220006370FFF7D7FFA071000AE07164230822F2
:102230002146044803F09FF8B0FA80F0400910BD31
:1022400002090020C0050020F8B5414C2B220021D6
:10225000204605F017FE012600223E4B06219D1E5A
:102260001A609A8003F8026C03236B7013232846CC
:102270006B71FFF7AFFFA871000A32460221E871C7
:10228000354800F0F3FB642308222946334803F065
:1022900072F808B10020F8BD4FF4FA732B222146E2
:1022A0002E4803F0B6F806460028F3D12578012D14
:1022B000F0D16378032BEDD1A378262BEAD1292125
:1022C0002046FFF787FFB4F829708742E2D1B4F8BF
:1022D0000320234B52BA1A80B4F805201E4852BA84
:1022E0005A80B4F80720022152BA9A80B4F8092023
:1022F00052BADA80B4F80B2052BA1A81B4F80D2021
:1023000052BA5A81B4F80F2052BA9A81B4F8172001
:1023100052BA5A82B4F8192052BA9A82B4F81B20E1
:1023200052BADA82B4F81D2052BA1A82B4F82120C7
:1023300052BADA81B4F8252052BA1A83B4F82720A9
:1023400052BA5A83324600F091FB2846A3E700BFF9
:10235000080900200209002000080140C0050020F3
:10236000340900200128014602D81220FFF74ABF95
:10237000002070470128014602D80F20FFF742BF16
:102380000020704740F6B832A0F516739BB2934216
:10239000014602D80120FFF735BF00207047B0F595
:1023A000FA7F014602D80220FFF72CBF00207047B9
:1023B000114B07B59A690F2142F001029A619A699F
:1023C0006FF0010002F001020092009ADA6942F017
:1023D0008052DA61DB69002203F080530193019B94
:1023E00000F0ACF9054A536823F0E06343F0007352
:1023F000536003B05DF804FB001002400000014090
:1024000010B5044686B01022002102A805F03AFD5E
:102410002268154B9A4224D1144CC022A369144857
:1024200043F00803A361A36902A903F00803009322
:10243000009B1223CDE902230323059300F03CFA0D
:10244000E3691F2043F40013E361E369002203F40E
:10245000001301930521019B00F070F91F2000F08B
:102460009DF906B010BD00BF0054004000100240AE
:10247000000C014010B504468AB01022002106A8C5
:1024800005F000FD2368484A934231D1474B4FF491
:1024900000749A69464842F480429A619A6906A992
:1024A00002F480420092009A9A6942F004029A6112
:1024B0009B6903F004030193019B0223CDE90643CA
:1024C00003230024099300F0F7F94FF480633848A0
:1024D00006A9CDE90634089400F0EEF9252022463D
:1024E000052100F02BF9252000F058F90AB010BDA5
:1024F000304A93422CD12D4B0420DA6906A942F4CC
:102500000032DA61DA69002402F400320292029A9F
:102510009A6942F004029A619B6903F004030393F1
:10252000039B0223CDE9060303232148099300F00E
:10253000C3F908231E4806A9CDE90634089400F023
:10254000BBF926202246052100F0F8F82620CBE72B
:10255000194A9342CAD1154B06A9DA69174842F4C1
:102560008022DA61DA6902F480220492049A9A697C
:1025700042F008029A619B694FF4806203F00803FD
:102580000593059B0223CDE906230323099300F05D
:1025900093F900234FF400610848CDE9061306A91A
:1025A000089300F089F9A1E70038014000100240CB
:1025B000000801400044004000480040000C014079
:1025C000FEE7FEE7FEE7FEE7FEE7704708B500F02E
:1025D0007FF805F047F8012803D0BDE8084005F072
:1025E00001B908BD014801F0F1BC00BF8C410020D9
:1025F000014801F003B800BF98060020014803F02D
:1026000097B800BF50060020014803F091B800BF02
:102610000806002070470000FFF7FCFF0B480C493C
:102620000C4A002302E0D458C4500433C4188C422E
:10263000F9D3094A094C002301E013600432A24295
:10264000FBD305F027FCFEF759FF70470000002080
:102650008C010020108000089001002064440020BC
:10266000FEE7000038B50E4B05461A784FF47A7332
:10267000B3FBF2F30B4A1068B0FBF3F000F09CF8E8
:10268000044658B90F2D09D8024629464FF0FF30AD
:1026900000F054F82046044B1D6038BD0120FCE7D3
:1026A000100000200C00002014000020074A08B58C
:1026B0001368032043F01003136000F02DF80F207F
:1026C000FFF7D0FFFFF774FE002008BD0020024096
:1026D000034A044B11681B780B441360704700BF1A
:1026E0005009002010000020014B1868704700BFFF
:1026F0005009002038B50446FFF7F6FF0546631C75
:102700001EBF044B1B78E418FFF7EEFF431BA342E8
:10271000FAD338BD1000002007490302CA6803F449
:10272000E06322F4E0621204120C134343F0BF632F
:1027300043F40033CB60704700ED00E0154B30B53B
:10274000DC68C4F30224C4F10703251D042B28BF51
:102750000423062D4FF0FF3594BF0024033C05FAF7
:1027600003F321EA0303A54022EA0502A34000285F
:1027700043EA0203ACBF00F16040074A4FEA03138B
:10278000DBB2ABBF00F5614000F00F0080F8003312
:10279000135430BD00ED00E014ED00E0002807DB2D
:1027A00001234109034A00F01F00834042F8213011
:1027B000704700BF00E100E00138B0F1807F0BD22C
:1027C0004FF0E023F021054A586182F823100020E1
:1027D000072298611A6170470120704700ED00E000
:1027E00090F821200346022A06D0042282630120A9
:1027F000002283F8202070470268C06B116821F026
:102800000E011160116821F00101116001211A6CA3
:1028100001FA02F24260002083F82110E8E700008C
:1028200008B590F82130022B03D0042383630120E4
:1028300008BD03681A6822F00E021A601A6822F0B6
:1028400001021A60174A93421FD0143293421ED0DD
:10285000143293421DD0143293421DD0143293424D
:102860001DD01432934214BF4FF080734FF4801385
:102870000D4A5360012380F82130002380F8203076
:10288000436B03B198470020D2E70123F0E7102300
:10289000EEE74FF48073EBE74FF48053E8E74FF433
:1028A0008033E5E7080002400000024090F8210074
:1028B0007047806B704700002DE9F74F00244FF000
:1028C0000F0E2646DFF884C1614B00F104080A6848
:1028D00032FA06F502D103B0BDE8F08F012505FA02
:1028E00006F702EA070537EA020276D14A68032AA8
:1028F00007D8013A022A00F28380DFE802F09196BD
:102900009C00122A00F0948069D8112A00F08A8075
:10291000FF2D94BF8146C1464FEA8602D9F8007068
:1029200088BF203A0EFA02FA27EA0A0704FA02F2EE
:102930001743C9F80070D1F8049019F0805F4CD0AB
:10294000DCF8182026F0030742F00102CCF818202A
:10295000DCF8182007F1804702F00102019207F528
:10296000803706F0030A019A4FEA8A0ABA680EFA1B
:102970000AFB22EA0B0B374A904260D002F58062D4
:1029800090425ED002F5806290425CD002F5806297
:10299000904214BF0422032202FA0AF242EA0B0216
:1029A000BA609A6819F4801F14BF2A43AA439A6038
:1029B000DA6819F4001F14BF2A43AA43DA605A6880
:1029C00019F4003F14BF2A43AA435A601A6819F445
:1029D000803F14BF2A43AA431A60013677E7DFF825
:1029E00078904A450CD014D8A9F580194A4507D0EB
:1029F00009F570294A4503D0A9F580194A4587D1C0
:102A00008A68D2B1012A4FF008040CBF0761476100
:102A10007EE7DFF848904A45F2D009F58039EDE7C6
:102A2000CC6875E7CC68043472E7CC6808346FE78B
:102A3000CC680C346CE700246AE7042468E70022C1
:102A4000AAE70122A8E70222A6E700BF0010024081
:102A50000004014000080140000022100000311075
:102A60008368194214BF0120002070470AB1016138
:102A700070470904FBE7C36801EA030221EA030186
:102A800041EA024101617047016800224B6913F479
:102A9000806310D06FF480634B612023026380F861
:102AA0003D3080F83E20036C80F83C2043F0040366
:102AB000036401207047184670472DE9F846064622
:102AC0000F4691461D464FEA114A3368BAF1010F8D
:102AD0000CBF5C699C6927EA0404A4B2B4FA84F4CC
:102AE0006409A14501D0002025E06A1CEED0FFF763
:102AF000FBFD089BC01AA84201D8002DE5D1336820
:102B0000BAF1010F0CBF5B699B6927EA03039BB213
:102B1000B3FA83F35B099945D7D100232022012022
:102B2000336386F83D2086F83E30326C86F83C30C0
:102B300042F020023264BDE8F8862DE9F0410446F7
:102B40000F46164698462568686927EA000080B255
:102B5000C0B16B695A0517D52B68202243F4007366
:102B60002B606FF480636B610023236384F83D2046
:102B700084F83E30236C43F00403236400230120D7
:102B800084F83C30BDE8F081731CDDD0FFF7ACFD6C
:102B9000A0EB0800B04201D8002ED4D123685A69B6
:102BA00027EA020292B2002ACDD00023202223631A
:102BB00084F83D2084F83E30236C1343DDE770B584
:102BC00004460D46164623685B691B0601D50020A6
:102BD0001EE02046FFF758FFC8B96A1CF3D0FFF784
:102BE00083FD801BA84201D8002DECD123685B69CE
:102BF00013F08003E7D12022236384F83D2084F87A
:102C00003E30226C84F83C3042F0200222640120E5
:102C100070BD70B504460D46164623685B695B07B8
:102C200001D500201EE02046FFF72EFFC8B96A1C20
:102C3000F3D0FFF759FD801BA84201D8002DECD13D
:102C400023685B6913F00403E7D12022236384F82F
:102C50003D2084F83E30226C84F83C3042F0200263
:102C60002264012070BD70B504460D4616462168E9
:102C70004B6913F0400301D0002011E04A69D206ED
:102C80000FD56FF010024A612022236384F83D20A3
:102C900084F83E30236C23640023012084F83C3008
:102CA00070BDFFF721FD801BA84201D8002DDED1A9
:102CB00023685B6913F04003D9D12022236384F891
:102CC0003D2084F83E30236C1343E4E770B504469E
:102CD00008B9012070BD90F83D3003F0FF021BB928
:102CE00080F83C20FFF78CFB242384F83D302368D8
:102CF0001A6822F001021A601A6842F400421A604F
:102D00001A6822F400421A6002F0D2F93F4B65685B
:102D10009D4294BF3E4B3F4B98428CBF0023012302
:102D2000002BD6D1394E3C4BB542B0FBF3F388BFF4
:102D30004FF496762268516821F03F0141EA030181
:102D400082BF73434FF47A76B3FBF6F35160116A96
:102D5000013321F03F010B431362D169431E2B481D
:102D600021F44F41854221F0FF0132D86D00B3FBC1
:102D7000F5F340F6FC700133034242D0C3F30B037A
:102D80001943D1611168D4E9073021F0C001034330
:102D90000B4313609168D4E9030321F40341034317
:102DA00021F0FF010B439360D168D4E9053021F095
:102DB000FF0103430B43D3601368002043F001037A
:102DC00013602023206484F83D30206384F83E00A3
:102DD00080E7A06850B905EB4505B3FBF5F3013377
:102DE000C3F30B037BB143F40043C9E719206843E5
:102DF000B3FBF0F30133C3F30B0323B143F44043BC
:102E0000BEE70423BCE70123BAE700BFA0860100A8
:102E10007F841E00FF083D0040420F002DE9F04373
:102E2000044685B098460D4691460C9FFFF75CFC22
:102E300094F83D300646202B04D00225284605B0E4
:102E4000BDE8F08300901923012220465C49FFF77A
:102E500034FE0028F1D194F83C30012BEDD0012351
:102E6000216884F83C300B68DA075EBF0B6843F0DA
:102E700001030B600B6823F400630B60212384F8CB
:102E80003D30102384F83E3000232364A4F82A80C8
:102E9000638DC4F8249023854A4BE362E36A082BD0
:102EA00004D0012B02D013F5803F04D10B6843F40A
:102EB00080730B6002E0236B122BF7D000223B469D
:102EC0004FF0011120460096FFF7F7FD226840B150
:102ED0001368DB0501D40125B0E74FF400732364C8
:102EE000F9E72369B3F5804F21D105F0FE0515619F
:102EF00033463A4620463449FFF71FFE0546002870
:102F0000E9D1236803905A6903929B690393039B59
:102F1000238DF3B921680A6842F400720A60202206
:102F200084F83C3084F83D2084F83E3086E7EB118D
:102F300003F0060343F0F0031361204633463A469C
:102F40002249FFF7FAFD0028C5D12368EDB21D61C3
:102F5000CEE7324639462046FFF731FE40B1236CBA
:102F6000042BB8D12268136843F400731360B2E7EE
:102F7000636A20681A4612F8011B01616262628D61
:102F8000013A92B26285228DD0F814C0511E89B2E6
:102F90001CF0040F21850AD049B159780233016130
:102FA0006362638D023A013B9BB2638522853246A0
:102FB00039462046FFF72DFE0028A9D0CFE700BFF5
:102FC000020010000000FFFF0200010008000100E5
:102FD0002DE9F04398460023044689B002930E463B
:102FE0009146109FFFF780FB94F83D300546202B5B
:102FF00004D00226304609B0BDE8F08300901923C2
:10300000012220468F49FFF758FD0028F1D194F89E
:103010003C30012BEDD00123216884F83C300B6853
:10302000DB075EBF0B6843F001030B600B6823F402
:1030300000630B60222384F83D30102384F83E3077
:1030400000232364A4F82A80638DC4F82490238588
:103050007D4BE362E36A0A68082B42F480620A60EF
:1030600004D0012B02D013F5803F04D10B6843F448
:1030700080730B6002E0236B112BF7D03B460022DC
:103080004FF0011120460095FFF717FD236838B176
:103090001B68D80544BF4FF4007323640126A9E7D9
:1030A0002269B2F5804F29D146F00106F6B21E61C1
:1030B0002B463A4620466549FFF73FFD0646002865
:1030C000ECD1228D2368002A4DD103905A690392D6
:1030D0009A690392039A1A6842F400721A60DFF840
:1030E0007081DFF87091238D002B6CD1202284F841
:1030F0003C3084F83D2084F83E307BE74FEAE61808
:1031000008F0060848F0F0021A6120462B463A46BD
:103110005149FFF712FD0028C0D12368F6B23A46A4
:103120001E6120462B464949FFF707FD024600284D
:10313000B4D123680790596920460791996907918E
:103140000799196841F4807119603B464FF00111ED
:103150000095FFF7B2FC226808B1136899E748F0C0
:10316000F1031361A4E7012A11D11A6822F48062E5
:103170001A6072B6236804905A6904929A6904929C
:10318000049A1A6842F400721A6062B6A7E7022A2B
:103190001A680ED142F400621A6072B62368059074
:1031A0005A6905929A690592059A1A6822F4806212
:1031B000EAE742F480621A6006905A6906929B69B7
:1031C0000693069B8BE7032B00F28880012B16D118
:1031D0002A4639462046FFF746FD00287FF45EAFB9
:1031E00023681A69636A1A70636A01336362238D04
:1031F000013B2385638D013B9BB2638573E7022B03
:103200004FF000023B4641462046009526D1FFF78D
:1032100054FC00287FF442AF72B623681A6842F467
:1032200000721A601A69636A1A70636A0133636212
:10323000238D013B2385638D013B9BB2638562B681
:10324000CEE700BF020010000000FFFF02000100F7
:10325000040001000C00002008000100FFF72DFC15
:1032600000287FF41BAF2268136823F48063136087
:1032700072B646F2A81123681A69636A1A70626A04
:10328000531C6362238D013B2385638D013B9BB2FD
:103290006385D9F80030B3FBF1F323214B4302934C
:1032A000029B013B0293029B6BB92022236384F8AB
:1032B0003D2084F83E30226C42F02002226462B647
:1032C00084F83C30EAE6236859694907E8D519686B
:1032D00041F4007119601B695370A6E72A4639460C
:1032E0002046FFF7C0FC00287FF4D8AE23681A6997
:1032F000636A1A70628D616A013A92B24B1C6285F0
:1033000022686362238D5069013B9BB2400723858D
:103310007FF5E9AE032B02BF136823F480631360CB
:1033200013694B7060E700BF704770477047704784
:1033300070477047704790F83D2008B5036DD2B2D2
:1033400083B9C36C0268012B836C05D1DBB21361B6
:10335000036D0233036508BDC3F307231361036DD7
:103360000133F7E7036D012B03D1836C0268DBB2F5
:10337000F4E7036D022B2FD1222A05D102681368CE
:1033800043F480731360EAE7438D9BB263B1212A53
:103390000AD1436A026813F8011B11614362438D2D
:1033A000013B9BB24385D6E7438D9BB2002BD2D124
:1033B000212AD0D10268516821F4E061516011687E
:1033C00041F4007111602022036380F83D2080F8F1
:1033D0003E30FFF7AFFFBEE703685A69120644BFED
:1033E00000221A61B7E7704770477047002337B56E
:1033F00046F2A81101932C4B406A1B6890F83D20BF
:10340000B3FBF1F323214B4301930368D2B201993B
:1034100041BB016C41F020010164446B0CB10021FF
:10342000A162816B09B100258D621D6825F480655C
:103430001D600025458504B1656301B14D631968C0
:1034400021F00101196090F83D10602911D120236D
:1034500080F83D30002380F83E300364FFF7C5FF5D
:1034600003B030BD01990139019119688905CED4A5
:10347000D3E702F02802282A0ED1196841F0010191
:103480001960196841F4806119600023036380F8B2
:103490003D20FFF7A9FFE3E7202380F83D3000231C
:1034A00080F83E30F5E700BF0C00002010B590F822
:1034B0003D2090F83E300446102BD9B2D2B20368BA
:1034C00001D0402913D1222A11D1196821F40061B9
:1034D0001960596811F4006106D1602A1EBF2022CC
:1034E00084F83D2084F83E100022226307E002F0B9
:1034F00028012829EDD10022226384F83D105A6862
:1035000012F400624FD05A68606B22F400625A6075
:1035100090F82130012B374B2BD04363FFF780F914
:1035200050B12268606B136823F0010313602023FD
:1035300084F83D30436B9847236C19071FBF2268FE
:10354000536823F4E063536094F83D30226CDBB29F
:1035500052070DD5282B0BD1274B2022E3620023E5
:103560002046236384F83D2084F83E30FFF7E1FED7
:1035700010BDA06B4363FFF753F90028DCD023682C
:103580005A69510605D51A69636A1A70636A01336C
:1035900063622268A06B136823F001031360202389
:1035A00084F83D30C6E794F83D10602915D12021FC
:1035B00084F83D1022645A69520605D51A69636A77
:1035C0001A70636A0133636222682046136823F02D
:1035D00001031360FFF709FFAEE75A69500605D5EE
:1035E0001A69636A1A70636A013363622046FFF7DF
:1035F000FBFEA1E7ED3300080000FFFFF0B5044635
:1036000003688FB05A68C66A90F83E0094F83D107F
:103610001028C5B2C9B202D0402D40F0E5829F69A2
:10362000586910F0010F07D1B6F52A0F02D0B6F194
:103630002A4F51D10FB0F0BD96054DD5E26AB2F5D3
:103640002A0F0CD10122E26294F83E20402A11D1C7
:10365000226D52B9626C02F0FE021A61EAE7E26A78
:10366000B2F12A4FF0D10822EDE7626C42F001027C
:10367000D2B2F2E72269B2F5804F1AD194F83D2018
:10368000212A626C11D102F0FE021A61626B0AB14A
:10369000926A2AB9A26B002ACCD0926A002AC9D0B9
:1036A0005A6842F400625A60C4E742F00102D2B2A2
:1036B000EBE7226D32B9626CD21102F0060242F0E1
:1036C000F002CAE7226D012AB4D1626CD21102F075
:1036D000060242F0F102C0E7060703D5960501D5C0
:1036E000626CE4E7860740F1F080960540F1ED80DA
:1036F00094F83E10E26A256B94F83D00C9B2222886
:1037000040F0DB80206D40B9402906D100905A6915
:1037100000929B690093009B8CE7216D89B9206919
:10372000B0F5404F0DD101915A6901929A69019209
:10373000019A1A6842F480721A60236D013323657E
:1037400078E7618D89B251B902915A6902929A69FA
:103750000292029A1A6842F400721A6019E0618DAE
:1037600089B2012949D112F5803F1BD11A6822F490
:1037700080621A605A6812F400620CD01A6822F44F
:1037800080621A60002203925A6903929B69039334
:10379000039B0023D3E704925A6904929A69049226
:1037A000049AD7E7082A1CD0202A1AD0122D0DD14E
:1037B000012A16D11A6822F480621A60002205924A
:1037C0005A6905929B690593059BE2E7102AF1D897
:1037D000864941FA02F2D707ECD41A6842F48062B3
:1037E000EBE71A6822F480621A60002206925A6996
:1037F00006929A690692069AACE7618D89B202290F
:1038000038D1102A03D87A49D140CE0718D4196884
:1038100041F4006119600021079159690791996984
:1038200007910799196821F48061196059680D059D
:10383000AFD5202A1BD8072A0ED8012AA9D111E01A
:10384000196841F480611960002108915969089153
:10385000996908910899E9E7A2F10801654ACA4007
:10386000D00796D55A6842F480525A6091E712F513
:10387000803FE3E7196841F48061196059680905E0
:1038800010D5202A16D8072A06D8012A0AD15A6844
:1038900042F480525A6005E0A2F10801554ACA403C
:1038A000D207F4D4002209925A6909929B690993BC
:1038B000099B6EE712F5803FE8E700220A925A69F9
:1038C0000A929B690A930A9BB4E67F0740F19480B1
:1038D0005E6836053FF5AEAE070600F004063ED53D
:1038E00050053CD5002E3DD194F83D20258D94F80F
:1038F0003E10D2B2E06AC9B2C5B9212A18D108284F
:1039000058D0202856D010F5803F53D05A6822F462
:10391000E0625A6011232363002384F83E302023A1
:10392000204684F83D30FFF7FFFC83E6212A05D0CE
:1039300040297FF47FAE222A7FF47CAE628D92B262
:103940001AB95A6822F48062ADE694F83E20402A03
:1039500016D120460FB0BDE8F040FFF7ECBC002EBA
:103960003FF468AE97057FF565AE212939D1E16A4C
:1039700094F83D20212A7FF45DAE628D92B24AB167
:10398000626A12F8011B19616262638D013B9BB28E
:1039900063854FE608290DD020290BD011F5803F13
:1039A00008D0596821F4E06159601123236384F839
:1039B0003E20B4E75A68204622F4E0625A601A6852
:1039C00042F400721A6000232022236384F83D2011
:1039D00094F83E2084F83E30402AA4D1FFF7AAFC98
:1039E00028E6402D7FF426AEB3E700BFEBFFFEFFD5
:1039F000140001000101000159680E053FF51AAEDF
:103A0000450600F0040140F18680500540F18380B6
:103A1000002940F0838094F83D20222A7FF40AAEEA
:103A2000E06A628D92B2032A14D91A69636A1A7025
:103A3000636A01336362638D013B9BB26385638D6F
:103A40009BB2032B7FF4F6AD2268536823F48063A6
:103A50005360EFE5E56A022D3FF473AF012A3FF6AC
:103A600070AF0B9146F2A811784A1268B2FBF1F2DE
:103A700002EB82020B920B9A013A0B920B99D1B98D
:103A8000226C204642F0200222645A6822F4E0624E
:103A90005A601A69636A1A70636A01336362638DDC
:103AA000013B9BB26385202384F83D3084F83E10AF
:103AB000FFF79AFCBEE51A6812F40072DBD11968B0
:103AC00021F480611960596821F4E0615960196935
:103AD000636A1970636A01336362638D013B9BB251
:103AE0006385202384F83D3094F83E3084F83E20EE
:103AF000402B04D122632046FFF775FC9AE5082885
:103B000001D0202801D1002300E0122320462363A6
:103B1000FFF70BFC8EE500293FF48CAD92057FF595
:103B200089ADE26A608D616A80B2042809D15A6861
:103B300022F480625A601B690B70636A013363620E
:103B400023E7608D80B203280CD15868042A20F442
:103B500080605860EFD0022AEDD01A6822F48062AB
:103B60001A60E8E7608D80B20228E4D1042A33D0DD
:103B700007D8012A07D0022A2ED0186840F4007016
:103B800004E0102AF9D1186820F4806018601B69DD
:103B90000B70616A4B1C6362638D013B9BB2638552
:103BA00023681B694B70636A216801336362638D0C
:103BB000013B9BB263854B6823F440734B60202329
:103BC00084F83D3094F83E30402B4FF0000384F8E9
:103BD0003E3005D123638EE7186840F48060D5E756
:103BE000082A90D0202A8DE7206C10B30025586950
:103BF00087072DD596052BD5226C02B19D6994F8C7
:103C00003D2002F02802282A16D15A682F0622F4F5
:103C100080625A604FF0000385F00401204654BFD3
:103C2000A289228BC1F3800184F83C30FFF780FB2E
:103C300000E59D695869DBE700220C9259690C91F7
:103C40009B6984F83C200C930C9BF3E40C0000204F
:103C5000C60640F1B180950540F1AE8094F83D5024
:103C60005A68EDB222F4E0625A6000220D925A695D
:103C70000D921A6842F001021A600D9A1A6822F435
:103C800080621A605A68100520D505F0F702222AD2
:103C90004AD1A06B0268526892B26285628D92B27C
:103CA0001AB1226C42F0040222645A6822F40062C3
:103CB0005A60FEF7FBFD012808D0A06B794B4363E7
:103CC000FEF7AEFD10B1A06B436B9847638D9BB2BE
:103CD00013B323685A69510709D51A69636A1A70C0
:103CE000636A01336362638D013B9BB26385236822
:103CF0005A69520609D51A69636A1A70636A0133F0
:103D00006362638D013B9BB26385638D9BB21BB184
:103D1000236C43F004032364236C13B320460FB0D9
:103D2000BDE8F040FFF7C2BB606B0268526892B218
:103D30006285628D92B21AB1226C42F00402226452
:103D40005A6822F400625A60FEF7B0FD0128BDD027
:103D5000606B544B4363FEF763FD0028B6D0606B85
:103D6000B2E72A2D06D123632823204684F83D306C
:103D7000FFF7DDFA94F83D30282B0CD14A4B202276
:103D8000E36200232046236384F83D2084F83E301C
:103D9000FFF7CFFA4EE4236B222B02D0222D7FF4C3
:103DA00049AC00232022236384F83D2084F83E3070
:103DB0002046FFF7BCFA3DE401F0F701212900F0AD
:103DC000040535D1070627D5560525D53DBB94F802
:103DD0003D00628DC0B292B2002A3FF42BAC626A01
:103DE00012F8015B1D616262628D013A92B26285D6
:103DF000628D92B2002A7FF41DAC29287FF41AACA0
:103E00005A68204622F480625A602823216384F88D
:103E10003D30FFF78BFA0DE4002D3FF40BAC950518
:103E20007FF508AC628D92B2002A3FF403ACA7E59F
:103E3000400627D5510525D53DBB94F83D20618D21
:103E4000D2B289B200293FF4F5AB1969636A1970DF
:103E5000636A01336362638D013B9BB26385638D4B
:103E60009BB2002B7FF4E6AB2A2A7FF4E3AB2268F7
:103E7000536823F48063536022232363282384F848
:103E80003D3095E7002D3FF4D5AB92057FF5D2ABE1
:103E9000628D92B2002A3FF4CDAB1A69636A1A7040
:103EA0004BE600BFED3300080000FFFFF8B5044605
:103EB000E0B190F8913203F0FF021BB980F8902234
:103EC00003F0D8FE032384F8913200232546637162
:103ED00055F8040B01F0B0FD95E80E00206801F0E4
:103EE0009BFD014628B1022384F891320125284622
:103EF000F8BD206801F0AAFD0028F4D10246012790
:103F0000267904F11003C1B28E4203F1280318D8B8
:103F100000210A4604F5A873C8B2864203F12803BB
:103F20001BD895E80E00206801F092FD0546002898
:103F3000D9D101236073206884F8913202F03EF8F1
:103F4000D5E743E9062203F8277C03F8281C03F889
:103F5000252C43F8102C0130D5E743E9062203F85D
:103F6000272C03F8280C03F8252C43F8102C0131DA
:103F7000D2E738B590F890320446012B10D00125D5
:103F800080F89052006801F04EFD2946204603F06B
:103F900078FF206802F010F8002084F8900238BD05
:103FA0000220FCE710B590F890220446012A0AD0BE
:103FB0000122417380F89022006801F0F7FF002091
:103FC00084F8900210BD0220FCE700002DE9F04FBC
:103FD000044685B0006801F0F3FF10F4004500F0DE
:103FE0004F842825C64E2068B0F844301F0402D400
:103FF00005B0BDE8F08FB0F8443013F00F0799B268
:1040000040F0C08011F0100126D103889BB23340EC
:1040100043F400430380B0F85030227C9BB203EBA2
:10402000C20300EB4303B3F80434626AC3F3090329
:104030001A44E3622046626203F04BFE637B002B6E
:10404000D1D0A26A2168002ACDD1637B43F08003DE
:10405000A1F84C306273C6E70788BBB217F400675B
:1040600021D0B0F8503094F850219BB203EBC2033A
:1040700000EB4303B3F80C34B4F85621C3F309033F
:10408000C4F86C3104F5267102F0E5F92268204687
:10409000138823F070031B051B0D43F0800313806E
:1040A00003F008FE9FE719049DD5038823F07003F1
:1040B0001B051B0D43F080030380B0F8503094F8CB
:1040C00050219BB203EBC20300EB4303B3F80C3463
:1040D000C3F30903C4F86C318BB1D4F8641171B126
:1040E000B4F8562102F0B7F9D4F86431D4F86C2151
:1040F000394613442046C4F8643103F0E1FD2168D9
:104100000A8893B212053FF56EAF03F44053B3F53E
:10411000405F3FF468AFB1F8502001F20C4092B21A
:10412000835AC3F309038352D4F860313E2B1DD95F
:104130005F09DB06835A08BF07F1FF379BB243EAEA
:1041400087236FEA43436FEA53439BB283520B8842
:1041500023F4804323F070031B041B0C83F44053AF
:1041600043F4004343F080030B803CE70BB9835AD0
:10417000E7E75F08DB07835A48BF01379BB243EA92
:104180008723E2E730F8273019041FFA83F840F15B
:10419000F68030F8273005FB074123F070031B053C
:1041A0001B0D43F0800320F8273091F85C3100F5B7
:1041B000806EBBB9B0F8503091F850219BB20633F5
:1041C00003EBC2033EF81390C9F30909B9F1000FDC
:1041D00000F0BA804B46B1F85621D1F8641102F0D4
:1041E0003AF9B1E091F8533191F85021022B40F0A7
:1041F0008980B0F850904FEAC20B1FFA89F918F481
:10420000804AD1F86831D94408F0400C3CD009F11B
:1042100002093EF81990C9F30909994513D90023F9
:10422000C1F8683130F8223023F4804323F0700362
:104230001B041B0C83F4005343F4004343F080033E
:1042400020F8223005E0A3EB0903C1F86831002B08
:10425000E8D0BCF1000F0DD030F8223023F4E04359
:1042600023F070031B041B0C43F4004343F0C00312
:1042700020F82230B9F1000F66D0282101FB074158
:104280004B46B1F85821A8E709F106093EF8199004
:10429000C9F30909994512D9C1F868A130F822304B
:1042A00023F4804323F070031B041B0C83F400539E
:1042B00043F4004343F0800320F8223005E0A3EBF1
:1042C0000903C1F86831002BE8D0BCF1000F0DD113
:1042D00030F8223023F4E04323F070031B041B0C5E
:1042E00043F4004343F0C00320F82230B9F1000F3B
:1042F0002AD0282101FB07414B46B1F85A216CE72F
:104300000F8FFFFF30F8223023F4E04323F07003D7
:104310001B041B0C43F4004343F0C00320F822307D
:1043200091F8503130F82320DB0012F4804FB0F8C0
:10433000502092B254D0023213443EF81390C9F385
:104340000909B9F1000F9BD105FB07F16318D3F8F8
:104350006C214A44C3F86C21D3F864214A44C3F861
:104360006421D3F868211AB1D3F86031994541D25C
:1043700005FB0743204693F8501103F0A1FC18F009
:10438000800F20683FF42FAE30F8273005FB07FC84
:104390009BB2334043F4004320F8273004EB0C0376
:1043A000DA7C012A56D1002107FB0552A1501A7F61
:1043B00092B318F040085A7C36D012BBB0F85020A7
:1043C0001B7C92B21B0100F2044010441A5AC2F343
:1043D00009021A521A5A92B242F400421A521BE0CF
:1043E000063213443EF81390C9F30909B9F1000FDE
:1043F000AAD081E701F5A8712068214401F0F6FDFB
:10440000BDE7012A08D1B0F850201B7C92B200F21F
:1044100004401B0110441952282303FB0743197C55
:10442000204603F056FCDEE53AB9B0F850201B7C7C
:1044300092B21B0100F20C40C7E7012AECD1B0F8A0
:1044400050201B7C92B200F20C401B01104423F858
:104450000080E1E7197C18F4807E9A6A4FEAC10A6D
:1044600000F580691BD1B0F85070BFB257440237D5
:1044700039F81770C7F30907974202D3C3F828E049
:10448000CEE7D21B9A625A6A0CF110013A445A6282
:10449000DA6A21443A44DA6201F0A8FDA3E5B0F8F3
:1044A00050C018F0400E1FFA8CFCD44408F4804829
:1044B00000F0F4800CF1020C39F81CC01FFA88F8E7
:1044C000CCF3090C94452CBF0022A2EB0C029A629B
:1044D000002A5BD1282303FB07435B7C002B41D1DF
:1044E000B0F8502000F2044C92B20B0194443CF816
:1044F0000320C2F309022CF803203CF803206FEAE2
:1045000042426FEA524292B22CF80320B0F8502097
:1045100000F20C4092B21044C25AC2F30902C252D5
:10452000C25A6FEA42426FEA524292B2C2522046E7
:1045300003F0CFFBB8F1000F00F0F480282303FB59
:1045400007432268197C32F8213023F4E04323F03A
:1045500070031B041B0C43F4404343F0800322F818
:104560002130DFE0012BE2D1B0F850E000F2044C42
:104570001FFA8EFEF4440B012CF80320B0F850C053
:1045800000F20C401FFA8CFC6044CFE7B8F1000F3A
:104590000DD030F8212022F4E04222F07002120403
:1045A000120C42F4404242F0800220F821204FF0E9
:1045B000280808FB074898F83420012A40F0B28008
:1045C000D8F8242002EB0C0EC8F824E0DA6A624422
:1045D000DA62D8F83030D8F82020934235D39B1ACD
:1045E000C8F83030282303FB074393F811C093B277
:1045F000BCF1000F45D1B0F8508000F2044C1FFA16
:1046000088F8C44409013CF801803E2AC8F309082F
:104610002CF8018025D94FEA5218D2063CF8012027
:1046200008BF08F1FF3892B242EA88226FEA42429C
:104630006FEA524292B22CF80120282202FB074274
:10464000128B714601F0C2FC6CE01BB9624688F81F
:104650003430C7E7002288F83420C8F830201A46E2
:10466000C0E712B93CF80120E0E74FEA5208D20750
:104670003CF8012048BF08F1010892B242EA8822C2
:10468000D8E7BCF1010FD8D1B0F850C000F2044215
:104690001FFA8CFC624409015352CEE70CF1060C60
:1046A00039F81CC01FFA88F8CCF3090C94458CBF6C
:1046B0007246A2EB0C029A62002A5DD1282303FB0A
:1046C00007435B7C002B43D1B0F8502000F2044C30
:1046D00092B20B0194443CF80320C2F309022CF877
:1046E00003203CF803206FEA42426FEA524292B242
:1046F0002CF80320B0F8502000F20C4092B2104485
:10470000C25AC2F30902C252C25A6FEA42426FEA67
:10471000524292B2C252204603F0DBFAB8F1000FC7
:104720003FF40CAF282303FB07432268197C32F8BF
:10473000213023F4E04323F040031B041B0C83F0DF
:10474000300343F4004343F0800322F821304AE46D
:10475000012BE0D1B0F850E000F2044C1FFA8EFEBD
:10476000F4440B012CF80320B0F850C000F20C40C8
:104770001FFA8CFC6044CDE7B8F1000F0DD130F882
:10478000212022F4E04222F070021204120C42F4C2
:10479000404242F0800220F821204FF0280808FB18
:1047A000074898F83420012ABCD1D8F8242002EB1D
:1047B0000C0EC8F824E0DA6A6244DA62D8F83030C5
:1047C000D8F82020934232D39B1AC8F830302823DF
:1047D00003FB074393F811C093B2BCF1000F42D121
:1047E000B0F8508000F20C4C1FFA88F8C44409015C
:1047F0003CF801803E2AC8F309082CF8018022D930
:104800004FEA5218D2063CF8012008BF08F1FF38E1
:1048100092B242EA88226FEA42426FEA524292B270
:104820002CF80120282202FB0742528B09E71BB912
:10483000624688F83430CAE70022C8F8302088F889
:1048400034201A46C3E712B93CF80120E3E74FEAE7
:104850005208D2073CF8012048BF08F1010892B283
:1048600042EA8822DBE7BCF1010FDBD1B0F850202F
:1048700000F20C4C92B294440A012CF80230D1E7B9
:10488000460512D522682046B2F8443023F48063EE
:104890001B041B0CA2F8443003F027FA29462046DB
:1048A00005B0BDE8F04FFFF77DBB41040AD5226893
:1048B000B2F8443023F480431B041B0CA2F84430AC
:1048C000FFF796BB820405D52268B2F8443023F482
:1048D0000053F1E7C30419D522682046B2F84030EE
:1048E00023F004031B041B0CA2F84030B2F8403044
:1048F00023F008031B041B0CA2F8403003F018FA45
:104900002268B2F8443023F48053D5E7070548D530
:1049100068462368064619461A4603F1200532F810
:10492000047B954226F8027BF9D1B3F8402092B27D
:1049300042F00102A3F84020B3F8402022F0010227
:104940001204120CA3F84020B3F844205605FBD5FE
:10495000B3F8442022F480621204120CA3F844201D
:1049600030F8022B21F8042B8D42F9D1B3F8402006
:10497000204692B242F00802A3F84020B3F8442047
:1049800022F400621204120CA3F84420B3F8402071
:1049900092B242F00402A3F8402003F0B9F9FFF705
:1049A00027BB82050DD522682046B2F8443023F497
:1049B00000731B041B0CA2F8443003F092F9FFF7BC
:1049C00017BBC3057FF514AB2268B2F8443023F45B
:1049D000807371E770B52824054601F00700444351
:1049E00011F0800F14BF04F1100104F5A87105EB5C
:1049F000040615BF01240024747486F8514114BFC5
:104A000049194919022BCB7008BF0023087008BF51
:104A10000B710A6195F89032012B09D001232868A7
:104A200085F8903201F026F8002085F8900270BDDC
:104A30000220FCE7282301F00702534311F0800F06
:104A400010B5044618BF03F1100118440BBF03F55D
:104A5000A8710123002309190ABF0919437480F8BA
:104A600051310A7094F89032012B09D0012320684B
:104A700084F8903201F05EF9002084F8900210BDB5
:104A80000220FCE770B52824002601F007014C4302
:104A9000051985F8501104F5A8710144C5E9592399
:104AA000C5F86C6185F85161006801F09FFA3046E5
:104AB00070BD282301F0070103FB0100D0F86C0151
:104AC000704770B5282501F007014D4344190026B1
:104AD000C4E909230122217405F11001014484F87D
:104AE00034202363E6626274006801F07FFA304686
:104AF00070BD38B5037901F00705AB4204462AD3EF
:104B000011F0800F4FF028031CD001226B4303F1FA
:104B10001001034401445A7401230D708B7094F802
:104B200090229A4219D0206884F8903201F0D5F989
:104B300025B9206804F5267101F046FA002084F8B2
:104B4000900238BD00224B4303F5A8710344014491
:104B500083F85121E0E70120F3E70220F1E738B5BF
:104B6000027901F00F039A42044626D3282301F06C
:104B70000702534311F0800F14BF03F1100103F536
:104B8000A87118444FF0000515BF0123002309192F
:104B9000091914BF437480F851318D700A7094F86C
:104BA0009032012B0BD00123206884F8903201F061
:104BB000B4F9284684F8905238BD0120FCE7022061
:104BC000FAE710B5282411F0800F1BBF01F0070190
:104BD00004FB010004FB0100103008BF00F5A870C1
:104BE00099B21AB90273C180002010BD01228360FE
:104BF0000273F9E72DE9F341054638B30368DB0793
:104C000010D42B689F075ED42B68190700F195809C
:104C10002B685A0700F1C180EB69002B40F02C8112
:104C2000002029E0904C636803F00C03042B07D0AC
:104C3000636803F00C03082B0AD16368DE0307D511
:104C400023689C03DDD56B68002BDAD1012013E0CB
:104C50006B68B3F5803F12D1236843F4803323603F
:104C6000FDF742FD064623689803CAD4FDF73CFDD4
:104C7000801B6428F7D9032002B0BDE8F0819BB9FE
:104C8000236823F480332360236823F48023236084
:104C9000FDF72AFD064623689903B2D5FDF724FDEA
:104CA000801B6428F7D9E6E7B3F5A02F236803D16A
:104CB00043F480232360CFE723F480332360236809
:104CC00023F48023CBE7684C636813F00C0F07D004
:104CD000636803F00C03082B10D16368DA030DD46A
:104CE00023689B0702D52B69012BAFD123686A6922
:104CF00023F0F80343EAC203236085E72A695B4B8C
:104D00006AB101221A60FDF7EFFC064623689F078F
:104D1000ECD4FDF7E9FC801B0228F7D9ABE71A6059
:104D2000FDF7E2FC0646236898077FF56DAFFDF7B7
:104D3000DBFC801B0228F6D99DE7AA694A4E4B4B43
:104D4000E2B10122C3F88024FDF7CEFC0446736A69
:104D50009B070DD54FF4FA52454B1B68B3FBF2F39A
:104D6000019300BF019B5A1E0192002BF9D14FE71E
:104D7000FDF7BAFC001B0228E9D97CE7C3F88024C0
:104D8000FDF7B2FC0446736A9F077FF541AFFDF75C
:104D9000ABFC001B0228F6D96DE7334CE369D80061
:104DA00024D40127E36943F08053E361E36903F00E
:104DB00080530093009B2F4E3368D90518D5EB68BC
:104DC000012B26D1236A43F001032362FDF78CFCFB
:104DD00041F288380646236A9B073FD5002F3FF4EF
:104DE0001BAFE36923F08053E36115E70027E2E797
:104DF000336843F480733360FDF776FC8046336894
:104E0000DA05DCD4FDF770FCA0EB08006428F6D9C5
:104E100031E7ABB9236A41F2883823F001032362FA
:104E2000236A23F004032362FDF75EFC0646236A2F
:104E30009807D3D5FDF758FC801B4045F7D91AE7F2
:104E4000052B236A03D143F004032362BAE723F05E
:104E500001032362236A23F00403B6E7FDF744FC51
:104E6000801B4045B7D906E70010024000004242CF
:104E70000C000020007000402A4C626802F00C0216
:104E8000082A3ED00022022B274B1A662CD1FDF7B0
:104E90002BFC06462368990120D42B6AB3F5803F8A
:104EA00005D16268A96822F400320A436260696A27
:104EB00062680B4322F474121343012263601A4B9D
:104EC0001A66FDF711FC054623689A013FF5A8AE66
:104ED000FDF70AFC401B0228F6D9CCE6FDF704FCDE
:104EE000801B0228D6D9C6E6FDF7FEFB05462368DF
:104EF0009B017FF595AEFDF7F7FB401B0228F6D925
:104F0000B9E6012B3FF4A2AE60682B6A00F4803250
:104F10009A427FF49BAE6B6A00F47010C01A18BFFF
:104F20000120A9E600100240000042420D4A5368E9
:104F300003F00C01082912D10B48C3F38341DB03B2
:104F4000405C09D55368094AC3F340435043084ABB
:104F5000D35CB0FBF3F07047064B584370470348EF
:104F6000704700BF00100240EE7F000800127A0078
:104F7000EC7F000800093D002DE9F0410D46044694
:104F800010B90120BDE8F081444A136803F007031B
:104F90008B4228D321688E0730D4CA0743D43F4AB6
:104FA000136803F00703AB4265D822683C4D12F04A
:104FB000040F6CD1130706D56B68226923F4605384
:104FC00043EAC2036B60FFF7B1FF6B68354AC3F376
:104FD0000313D35CD840344B1860344B1868FDF78A
:104FE00041FB0020CEE7136823F007030B43136057
:104FF000136803F007038B42C3D1CBE7284B11F0B2
:10500000040F1EBF5A6842F4E0625A60080742BFAC
:105010005A6842F460525A605A68A06822F0F0025E
:1050200002435A60B9E762681D4E012A33681AD1FB
:1050300013F4003FA5D0736841F2883823F00303CE
:1050400013437360FDF750FB07467368626803F013
:105050000C03B3EB820FA2D0FDF746FBC01B40450B
:10506000F3D903208EE7022A02D113F0007FE1E793
:1050700013F0020FDEE7136823F007032B431360DE
:10508000136803F00703AB427FF47BAF8DE76B68D7
:10509000E16823F4E0630B436B608BE70020024080
:1050A00000100240DC7F00080C00002014000020EB
:1050B000044B054A5B68C3F30223D35C034A1068C0
:1050C000D840704700100240D47F00080C00002038
:1050D000044B054A5B68C3F3C223D35C034A1068E0
:1050E000D840704700100240D47F00080C00002018
:1050F00003682DE9F3410546D80721D5364CE3690D
:10510000D9002BD40126E36943F08053E361E369BE
:1051100003F080530193019B304F3B68DA051FD5A4
:10512000236A6A6813F440732ED1236A6A6823F4F1
:105130004073134323621EB1E36923F08053E3619C
:105140002A68910706D52449A8684B6823F4404390
:1051500003434B60D30636D4002012E00026DBE781
:105160003B6843F480733B60FDF7BEFA80463B68C2
:10517000DB05D5D4FDF7B8FAA0EB08006428F6D912
:10518000032002B0BDE8F08102F440729A42CCD014
:105190000120134A236AC2F84004002023F440711E
:1051A000DF07C2F840042162BFD5FDF79DFA41F246
:1051B00088380746236A9807B7D4FDF795FAC01BCD
:1051C0004045F7D9DCE7044AE968536823F48003D3
:1051D0000B435360C0E700BF001002400070004066
:1051E00000004242026802F10C0353E8003F23F43E
:1051F00090730C3242E8003102680029F2D102F1CA
:10520000140353E8003F23F0010302F1140C4CE8AF
:1052100000310029F3D1036B012B0BD102F10C03F8
:1052200053E8003F23F0100302F10C0C4CE800316E
:105230000029F3D1202380F8423000230363704714
:1052400010B504460368C1681A6922F440520A4343
:105250001A6182680069D9680243606921F4B0511B
:1052600021F00C0102430A43DA605A69A16922F471
:1052700040720A435A610E4A934215D1FFF728FF44
:1052800019234343626820689200B3FBF2F364225F
:10529000B3FBF2F102FB11331B013233B3FBF2F328
:1052A00003EB0113836010BDFFF702FFE8E700BFC7
:1052B00000380140F7B505460C4617461E462A68D9
:1052C000136834EA030301D1002021E0701CF7D0F9
:1052D000FDF70AFAC01B86421CD3DEB12B68DA68E0
:1052E0005107ECD5802CEAD0402CE8D01A68120780
:1052F000E5D5002401941A68284601925B68019361
:10530000019BFFF76FFF082301206B6485F8404085
:1053100003B0F0BD0320FBE710B5044648B390F896
:10532000413003F0FF021BB980F84020FDF7A2F8DE
:105330002423226884F84130D368204623F40053A4
:10534000D360FFF77DFF236800201A6922F49042A2
:105350001A615A6922F02A025A61DA6842F400524C
:10536000DA602023606484F8413084F8423060635E
:1053700010BD0120FCE72DE9F843984690F8413034
:105380000446202B0E4617463FD100293FD0002A65
:105390003DD021230025456480F84130FDF7A4F974
:1053A000A3688146B3F5805FA784E78403D12369AE
:1053B0000BB935461E46E38C9BB253B943464A4669
:1053C00040212046FFF776FF202350B984F8413072
:1053D0000AE043464A4680212046FFF76BFF28B18A
:1053E0002023032084F84130BDE8F88322684EB9B9
:1053F00035F8023BC3F308035360E18C013989B2ED
:10540000E184D8E716F8013BF6E70220ECE701203B
:10541000EAE72DE9F8431F4690F842300446202B76
:105420000E46914648D1002948D0002A46D0222372
:105430000025456480F842300563FDF755F9A368FF
:105440008046B3F5805FA4F82C90A4F82E9003D189
:1054500023690BB935461E46E08D80B218B920236A
:1054600084F842300AE03B46424620212046FFF7BE
:1054700021FF28B12023032084F84230BDE8F883BF
:1054800023684EB95B68C3F3080325F8023BE38D3C
:10549000013B9BB2E385DFE7A268B2F5805F02D0F3
:1054A00032B9226922B95968C9B206F8011BEEE780
:1054B000596801F07F01F8E70220DFE70120DDE70E
:1054C00010B50446226802F10C0353E8003F23F4B0
:1054D000F0730C3242E8003123680029F2D103F165
:1054E000140252E8002F22F0010203F1140040E8F8
:1054F00000210029F3D1226B012A0BD103F10C0208
:1055000052E8002F22F0100203F10C0040E80021C5
:105510000029F3D15A6912061AD503F1140252E890
:10552000002F22F0800203F1140040E8002100293E
:10553000F3D1A06B60B14163FDF752F940B1A06BAC
:10554000FDF7B7F9202803D110230320636410BDB1
:10555000226853695B0616D502F1140353E8003F35
:1055600023F0400302F1140040E800310029F3D198
:10557000E06B40B14163FDF733F920B1E06BFDF71B
:1055800098F92028E0D000202023E084E0856064A2
:1055900084F8423084F841302063D8E7704708B57A
:1055A0000023406AC385C384FCF7FCF808BD70473C
:1055B00010B50446226802F10C0353E8003F23F4BF
:1055C00090730C3242E8003123680029F2D103F1D4
:1055D000140252E8002F22F0010203F1140040E807
:1055E00000210029F3D1226B012A0BD103F10C0217
:1055F00052E8002F22F0100203F10C0040E80021D5
:105600000029F3D15A6912F0400220D003F11402AC
:1056100052E8002F22F0400203F1140040E800217C
:105620000029F3D1E06B48B10C4B4363FDF7F8F868
:1056300010B1E06B436B9847002010BD2023E0853C
:1056400084F8423020632046FFF7B1FFF4E72023BF
:10565000E28584F842302263F5E700BF6156000816
:1056600008B520220023406AC38580F842200363E6
:10567000FFF79DFF08BD704790F8423007B5222B19
:1056800042D181680268B1F5805F836A3FD10169C8
:1056900000293FD15268C2F3080223F8022B83622B
:1056A000C38D013B9BB2C385002B2DD10268D1680D
:1056B00021F02001D160D16821F48071D16051695D
:1056C00021F001015161202280F842204363026BE6
:1056D000012A026828D1036302F10C0353E8003F5A
:1056E00023F0100302F10C0C4CE800310029F3D137
:1056F0001368DB0605D50191136801935368019384
:10570000019B818DFFF7B7FF03B05DF804FB39B94A
:10571000016929B95268D2B21A70836A0133BEE7AF
:10572000526802F07F02F7E7FCF72CF8ECE7000084
:10573000036873B51A6804461607D9685D6908D10D
:10574000960668D58D0666D502B0BDE87040FFF7B5
:1057500093BF05F0010001F4907505435BD0D607B7
:1057600005D5CD0542BF636C43F001036364530765
:1057700004D518B1636C43F002036364960704D543
:1057800018B1636C43F004036364150707D501F097
:10579000200303431EBF636C43F008036364636C20
:1057A000002B32D0920604D58B0602D52046FFF797
:1057B00063FF266820467369626C03F0400302F0C1
:1057C000080253EA020522D0FFF70CFD73695E065A
:1057D00018D5226802F1140353E8003F23F0400378
:1057E000143242E800310029F3D1E06B50B1744B20
:1057F0004363FDF715F840B1E06B436B02B0BDE8C1
:10580000704018472046FBF7CDFF02B070BDFBF794
:10581000C9FF6564F9E7206B012840F09480D50644
:1058200040F19180C80640F18E80002201921A68F2
:1058300001925A680192019A5A6952064DD5E16B5C
:105840000A68526892B2002ADFD0A08D9042DCD95B
:10585000E2858A69202A36D003F10C0252E8002F33
:1058600022F4807203F10C0040E800210029F3D1FA
:1058700003F1140252E8002F22F0010203F1140098
:1058800040E800210029F3D103F1140252E8002F6F
:1058900022F0400203F1140040E800210029F3D176
:1058A000202284F84220216303F10C0252E8002FE9
:1058B00022F0100203F10C0040E800210029F3D18E
:1058C000E06BFCF78DFF02236363E38DA18DC91AA2
:1058D00089B22046FFF7CFFE97E7E28DE08DA18DDC
:1058E00080B292B2002890D0891A89B200298CD057
:1058F00003F10C0252E8002F22F4907203F10C0520
:1059000045E800200028F3D103F1140252E8002FEB
:1059100022F0010203F1140545E800200028F3D12C
:10592000202284F84220206303F10C0252E8002F69
:1059300022F0100203F10C0545E800200028F3D105
:1059400002236363C5E7160628D50D0626D594F80D
:105950004120212A7FF459AFA168226AB1F5805F06
:1059600017D12169A9B932F8021BC1F308015960A6
:105970002262E28C013A92B2E284002A7FF445AFBF
:10598000DA6822F08002DA60DA6842F04002DA6017
:105990003BE7511C216212785A60EAE750067FF516
:1059A00034AF4A067FF531AFDA68204622F0400274
:1059B000DA60202384F84130FFF7F0FD25E700BFCF
:1059C0009F5500080023C285436422238285026913
:1059D00080F84230816203681AB1DA6842F480725A
:1059E000DA605A69002042F001025A61DA6842F036
:1059F0002002DA60704770B490F84260202E06D121
:105A000041B13AB10024046370BCFFF7DBBF022050
:105A100070BC70470120FBE784B004A800E90E00C9
:105A2000002004B0704703464FF43F420020A3F823
:105A30004400A3F840207047B0F8403023F47C5372
:105A40005B045B0CA0F840300020704700207047DA
:105A50001FB5044604A800E90E0000200123A4F8A5
:105A60004030A4F84000A4F84400A4F8500004B06A
:105A700010BD0000F0B50A78CD7830F8224003461A
:105A800024F4EC4424F070042404240C032D03D8E3
:105A9000DFE805F041494745012048F280063443DC
:105AA00023F8224033F822409F4FA4B23C401443D5
:105AB000344323F822400C7B03EB021C002C40F003
:105AC0008D80CC884E78640864007EB3B3F85010A3
:105AD00089B26144A1F8004433F82210490609D57F
