:020000040800F2
:1000000000500020752400081D2400081F2400084B
:1000100021240008232400082524000800000000F3
:10002000000000000000000000000000C1520008B5
:10003000272400080000000051530008292400086C
:10004000BD240008BD240008BD240008BD2400080C
:10005000BD240008BD240008BD240008BD240008FC
:10006000BD240008BD240008BD240008BD240008EC
:10007000BD240008BD240008BD240008BD240008DC
:10008000BD240008BD240008BD240008BD240008CC
:10009000BD240008BD240008BD240008BD240008BC
:1000A000BD240008BD240008BD240008BD240008AC
:1000B000BD240008BD240008BD2400084124000818
:1000C000BD240008BD240008BD240008BD2400088C
:1000D000BD2400084D2400085924000865240008A8
:1000E000BD240008BD240008BD2400080000000055
:1000F0000000000000000000000000000000000000
:0C01000000000000000000005FF808F1A3
:1001100010B5054C237833B9044B13B10448AFF341
:1001200000800123237010BD20000020000000008B
:10013000E456000808B5034B1BB103490348AFF36D
:10014000008008BD0000000024000020E4560008E4
:1001500080F0004002E000BF81F0004142001FBF7C
:100160005FEA410392EA030F7FEA226C7FEA236C85
:100170006AD04FEA1262D2EB1363C1BFD21841407A
:1001800048404140B8BF5B42192B88BF704710F010
:10019000004F40F4000020F07F4018BF404211F0B3
:1001A000004F41F4000121F07F4118BF494292EA1B
:1001B000030F3FD0A2F1010241FA03FC10EB0C0047
:1001C000C3F1200301FA03F100F0004302D54942D4
:1001D00060EB4000B0F5000F13D3B0F1807F06D381
:1001E00040084FEA310102F10102FE2A51D2B1F179
:1001F000004F40EBC25008BF20F0010040EA03006E
:100200007047490040EB0000013A28BFB0F5000FED
:10021000EDD2B0FA80FCACF1080CB2EB0C0200FAA3
:100220000CF0AABF00EBC25052421843BCBFD040F2
:100230001843704792F0000F81F4000106BF80F46C
:1002400000000132013BB5E74FEA41037FEA226C2F
:1002500018BF7FEA236C21D092EA030F04D092F0FA
:10026000000F08BF0846704790EA010F1CBF00202E
:10027000704712F07F4F04D1400028BF40F000408B
:10028000704712F100723CBF00F50000704700F0AB
:10029000004343F0FE4040F4000070477FEA2262D2
:1002A00016BF08467FEA23630146420206BF5FEAA3
:1002B000412390EA010F40F4800070474FF00003A3
:1002C00004E000BF10F0004348BF40425FEA000C6A
:1002D00008BF704743F0964301464FF000001CE012
:1002E00050EA010208BF70474FF000030AE000BF68
:1002F00050EA010208BF704711F0004302D54042A6
:1003000061EB41015FEA010C02BF84460146002017
:1003100043F0B64308BFA3F18053A3F50003BCFA32
:100320008CF2083AA3EBC25310DB01FA02FC6344DF
:1003300000FA02FCC2F12002BCF1004F20FA02F2E6
:1003400043EB020008BF20F00100704702F12002D9
:1003500001FA02FCC2F1200250EA4C0021FA02F23A
:1003600043EB020008BF20EADC7070474FF0FF0C3F
:100370001CEAD0521EBF1CEAD15392EA0C0F93EA3A
:100380000C0F6FD01A4480EA010C400218BF5FEADC
:1003900041211ED04FF0006343EA501043EA51114F
:1003A000A0FB01310CF00040B1F5000F3EBF490049
:1003B00041EAD3715B0040EA010062F17F02FD2A4D
:1003C0001DD8B3F1004F40EBC25008BF20F0010030
:1003D000704790F0000F0CF0004C08BF49024CEA47
:1003E000502040EA51207F3AC2BFD2F1FF0340EAD9
:1003F000C250704740F400004FF00003013A5DDC4A
:1004000012F1190FDCBF00F000407047C2F100028A
:10041000410021FA02F1C2F1200200FA02FC5FEA77
:10042000310040F1000053EA4C0308BF20EADC70C1
:10043000704792F0000F00F0004C02BF400010F433
:10044000000F013AF9D040EA0C0093F0000F01F0E0
:10045000004C02BF490011F4000F013BF9D041EA02
:100460000C018FE70CEAD15392EA0C0F18BF93EA04
:100470000C0F0AD030F0004C18BF31F0004CD8D12E
:1004800080EA010000F00040704790F0000F17BFB5
:1004900090F0004F084691F0000F91F0004F14D0FB
:1004A00092EA0C0F01D142020FD193EA0C0F03D153
:1004B0004B0218BF084608D180EA010000F0004056
:1004C00040F0FE4040F40000704740F0FE4040F431
:1004D000400070474FF0FF0C1CEAD0521EBF1CEAD0
:1004E000D15392EA0C0F93EA0C0F69D0A2EB0302EE
:1004F00080EA010C49024FEA402037D04FF0805388
:1005000043EA111143EA10130CF000408B4238BF4C
:100510005B0042F17D024FF4000C8B4224BF5B1A5A
:1005200040EA0C00B3EB510F24BFA3EB510340EAA8
:100530005C00B3EB910F24BFA3EB910340EA9C0056
:10054000B3EBD10F24BFA3EBD10340EADC001B01C6
:1005500018BF5FEA1C1CE0D1FD2A3FF650AF8B426A
:1005600040EBC25008BF20F0010070470CF0004C77
:100570004CEA50207F32C2BFD2F1FF0340EAC250A2
:10058000704740F400004FF00003013A37E792F063
:10059000000F00F0004C02BF400010F4000F013AC1
:1005A000F9D040EA0C0093F0000F01F0004C02BFBC
:1005B000490011F4000F013BF9D041EA0C0195E725
:1005C0000CEAD15392EA0C0F08D142027FF47DAFBE
:1005D00093EA0C0F7FF470AF084676E793EA0C0FAE
:1005E00004D14B023FF44CAF08466EE730F0004CAC
:1005F00018BF31F0004CCAD130F000427FF45CAF3C
:1006000031F000437FF43CAF5FE700BF4FF0FF3CA9
:1006100006E000BF4FF0010C02E000BF4FF0010CFC
:100620004DF804CD4FEA40024FEA41037FEA226CC5
:1006300018BF7FEA236C11D001B052EA530C18BFE7
:1006400090EA010F58BFB2EB030088BFC81738BF4C
:100650006FEAE17018BF40F0010070477FEA226C3A
:1006600002D15FEA402C05D17FEA236CE4D15FEA36
:10067000412CE1D05DF8040B704700BF844608466A
:100680006146FFE70FB5FFF7C9FF002848BF10F12B
:10069000000F0FBD4DF808EDFFF7F4FF0CBF012070
:1006A00000205DF808FB00BF4DF808EDFFF7EAFFFA
:1006B00034BF012000205DF808FB00BF4DF808EDB5
:1006C000FFF7E0FF94BF012000205DF808FB00BFAA
:1006D0004DF808EDFFF7D2FF94BF012000205DF830
:1006E00008FB00BF4DF808EDFFF7C8FF34BF01203D
:1006F00000205DF808FB00BF42000ED2B2F1FE4FB1
:100700000BD34FF09E03B3EB126209D44FEA0023E0
:1007100043F0004323FA02F070474FF000007047A7
:1007200012F1610F01D1420202D14FF0FF30704748
:100730004FF00000704700BF10B5074C6089FFF70D
:10074000C1FD0649FFF7C4FF20B1A0882388C31A62
:100750005842584110BD00BFBE0700200000C041F4
:10076000054B02465978814204D058704021034815
:1007700002F0AAB8704700BF3C000020000801400A
:10078000044A1178814204D0107010B99070FFF7BC
:10079000E7BF70473C000020024B187800B1987802
:1007A000704700BF3C00002038B501F0CBFE1B4C69
:1007B0006368A578C31A632B01D8284638BD012D7C
:1007C000606008D0022D1BD05DB923784BB101F0D9
:1007D00091FC012312E023782BB90020A070FFF7D1
:1007E000BFFFA078EAE701F085FCFFF7A5FFE07006
:1007F0000028F6D02846FFF7B3FF0223A370F0E7E6
:100800002378002BE9D001F075FCFFF795FFE0702D
:100810000028E6D1FFF7A4FFDBE700BF3C00002083
:1008200010B50023A52410490A1F0B604B600B7202
:1008300001F8044C4021517008219070D17010468D
:10084000194612F8014B013321440B2BC9B2F8D1E0
:10085000017364230D220549054803F09CFDB0FA9D
:1008600080F0400910BD00BF8F0100208B010020E7
:10087000DC040020F8B53422044600211B4804F0B3
:1008800005FF342200211A4804F000FF0D22C8237E
:1008900062431649174803F0CCFD034628B91449B2
:1008A00012489C4203D8012000E00020F8BD0F460A
:1008B00002460D4600F10C0652F804CBB24245F850
:1008C00004CBF9D112780E462A700022154616F88C
:1008D00001CB013562440C2DD2B2F8D13D7B0D31F4
:1008E000954200F10D00E0D10133DAE72301002049
:1008F00057010020DC040020F8B59020FFF790FF9E
:1009000010B900252846F8BD0120FFF7B3FF0546C2
:100910000028F6D0124F3C8964BAA4B2A4F5EA4488
:10092000303C2046FFF7CEFC0E49FFF7D3FD0E49C1
:10093000FFF7B0FE0028E4D17E8976BAB0B2FFF7A7
:10094000C1FC0849FFF7C6FD0849FFF7CBFE0028A8
:10095000D7D1BA88064B52BA1A825C829E82D1E7FE
:10096000570100200000204100803BC50000C84224
:100970004800002010B59120FFF752FF08B9002071
:1009800010BD0120FFF776FF0028F8D0074C084A79
:10099000A179A3889176B4F807105BBA49BA647A52
:1009A000D3825B1A1183D4761377E9E757010020CD
:1009B0004800002008B59220FFF732FF08B9002058
:1009C00008BD0120FFF756FF0028F8D0054A13792B
:1009D00092791344503B044A03EBD3735B10537773
:1009E000EEE700BF570100204800002008B5932023
:1009F000FFF716FF08B9002008BD0120FFF73AFFF6
:100A00000028F8D00D490E4B0A79012A02D0022A9B
:100A100000D002B99A774A79003A18BF0122DA77F2
:100A20008A79003A18BF012283F82020CA7983F816
:100A300021204A8952BA5A84DEE700BF57010020BC
:100A40004800002008B59420FFF7EAFE08B900200E
:100A500008BD0120FFF70EFF0028F8D00B4A0C4B11
:100A6000117983F82410517983F825109179003990
:100A700018BF012183F82610D179927A003918BF66
:100A8000012183F8282083F82710E1E7570100208F
:100A900048000020F8B5284D95F82430013B0F2B75
:100AA00047D89520FFF7BCFE08B90120F8BD032305
:100AB00095F824400234B4FBF3F4E4B22046FFF787
:100AC000D9FEB0B30026334695F824701B4AF1B224
:100AD0008C42EAD99F421ED992F805E092F806C0EE
:100AE000581CC0B205EB43014CEA0E2C8742A1F81A
:100AF0002AC00FD992F807E092F808C0991CC9B231
:100B000005EB40004CEA0E2C8F42A0F82AC005D815
:100B10000B4600E0034601360D32D8E792F809C0D3
:100B2000907A033305EB410140EA0C20DBB24885A3
:100B3000F1E70020BAE700BF48000020570100207D
:100B400038B5104C94F82530013B032B01D9002017
:100B500038BD9620FFF764FE0028F8D00120FFF78B
:100B600089FE0028F3D00023074994F825508934E2
:100B7000DAB29542ECD911F8012F0133283A04F882
:100B8000012FF5E7480000205B0100202DE9F84324
:100B90001E4D95F82430013B0F2B02D90020BDE8F3
:100BA000F8839720FFF73CFE0028F7D00120FFF7DD
:100BB00061FE0028F2D0002306221C4695F824E0AE
:100BC000DFF84CC0002604F199071CF8018F2F4470
:100BD000A64511D948FA06F101F00109C90748BF35
:100BE000013306F1010604F1010448BFDBB2082E0F
:100BF000E4B207F8019FEBD1013A12F0FF02E1D114
:100C0000003B18BF012385F8CA30C8E74800002020
:100C10005A01002038B59820FFF702FE08B90020DD
:100C200038BD0120FFF726FE0028F8D0002400255B
:100C3000B849B94B0A79C3E93445940740F1248196
:100C400001240025C3E93445140740F12281D3F87B
:100C5000D04044F00404C3F8D040940640F1218110
:100C6000D3F8D04044F01004C3F8D040D40900F0C9
:100C70002081D3F8D02042F04002C3F8D0204A7936
:100C8000940740F11E81D3F8D04044F48074C3F837
:100C9000D040140740F11D81D3F8D04044F4806463
:100CA000C3F8D040940640F11C81D3F8D04044F4FE
:100CB0008054C3F8D040D40900F01B81D3F8D02071
:100CC00042F48042C3F8D0208A79940740F1198118
:100CD000D3F8D04044F48034C3F8D040140740F136
:100CE0001D81D3F8D04044F48024C3F8D04094064A
:100CF00040F11C81D3F8D04044F48014C3F8D040B4
:100D0000D40900F01B81D3F8D02042F48002C3F84C
:100D1000D020CA79940740F11981D3F8D04044F02B
:100D20008074C3F8D040140740F11881D3F8D02064
:100D300042F08062C3F8D0200A7AD40742BFD3F8C9
:100D4000D04044F08054C3F8D040950742BFD3F858
:100D5000D04044F00054C3F8D040540742BFD3F809
:100D6000D04044F08044C3F8D040150742BFD3F8C8
:100D7000D04044F00044C3F8D040D40642BFD3F87A
:100D8000D44044F00104C3F8D440950642BFD3F8E0
:100D9000D44044F00204C3F8D440540642BFD3F810
:100DA000D44044F00404C3F8D440D2091EBFD3F8A1
:100DB000D42042F00802C3F8D4204A7AD50742BFB3
:100DC000D3F8D44044F01004C3F8D440940742BF91
:100DD000D3F8D44044F02004C3F8D440550742BFB0
:100DE000D3F8D44044F04004C3F8D440140742BFC1
:100DF000D3F8D44044F08004C3F8D440D50642BFB1
:100E0000D3F8D44044F48074C3F8D440940642BF6D
:100E1000D3F8D44044F40074C3F8D440550642BF1C
:100E2000D3F8D44044F48064C3F8D440D2091EBF40
:100E3000D3F8D42042F40062C3F8D4208B7ADC07C4
:100E400041BF3549D1F8D42042F48052C1F8D420B2
:100E5000990741BF3049D1F8D42042F40052C1F87B
:100E6000D4205A0741BF2C49D1F8D42042F4804203
:100E7000C1F8D4201B0741BF274AD2F8D43043F42D
:100E80000043C2F8D430CBE6D5077FF5DDAE0224AF
:100E9000D7E655077FF5E1AED3F8D04044F008041B
:100EA000D9E6D5067FF5E2AED3F8D04044F0200471
:100EB000DAE692093FF4E3AED3F8D02042F08002A4
:100EC000DBE6D5077FF5E5AED3F8D04044F40074F7
:100ED000DDE655077FF5E6AED3F8D04044F4006474
:100EE000DEE6D5067FF5E7AED3F8D04044F40054F3
:100EF000DFE692093FF4E8AED3F8D02042F4004296
:100F0000E0E6D5077FF5EAAED3F8D04044F40034EC
:100F1000E2E600BF570100204800002055077FF59A
:100F2000E6AED3F8D04044F40024DEE6D5067FF5E3
:100F3000E7AED3F8D04044F40014DFE692093FF462
:100F4000E8AED3F8D02042F40002E0E6D5077FF502
:100F5000EAAED3F8D04044F00074E2E655077FF5DE
:100F6000EBAED3F8D02042F00062E3E608B559209A
:100F7000FFF756FC08B9002008BD0120FFF77AFCF6
:100F80000028F8D0074A084B918849BA1980D188BF
:100F900049BA99801189528949BA52BA5980DA807E
:100FA000EAE700BF570100204800002008B55A209A
:100FB000FFF736FC08B9002008BD0120FFF75AFCF6
:100FC0000028F8D0074A084B918849BA1981D1887E
:100FD00049BA99811189528949BA52BA5981DA813B
:100FE000EAE700BF570100204800002070470000DA
:100FF000D8220021014804F049BB00BF480000206E
:101000000322014B9A77704748000020014B18607B
:10101000704700BF98010020034B0360034B0B6037
:1010200080231360704700BF9C0300209C010020B8
:1010300070B5642686B00096044615468DF80F10EC
:10104000012301790DF10F02006801F015FE58B976
:10105000009602232179206805AA01F0E7FE18B95D
:10106000BDF814305BBA2B8006B070BD1FB5130AF3
:101070008DF80D30642300938DF80C108DF80E2040
:101080000179032303AA006801F0F6FD05B05DF8BD
:1010900004FB000070B504460271436101600498CE
:1010A00011491D46FFF716FA2946A0600646FFF7CC
:1010B0005DF901460D48FFF70DFAFFF71DFB85B2FC
:1010C0000B4930462582FFF751F92A46E060052199
:1010D0002046FFF7CBFF2046BDE8704043F69F1245
:1010E0000021FFF7C3BF00BF00FEFF46ACC5273D90
:1010F0000000A04137B50D460DF106020221FFF7B1
:1011000097FF044660B9BDF80600C008FFF7DAF89B
:101110004FF08141FFF72AF90349FFF7DBF9286017
:10112000204603B030BD00BF00007A4473B50446CA
:10113000028A0E460521FFF799FF042120460DF192
:101140000602FFF775FF054638B9BDF90600FFF73F
:10115000B9F8A168FFF70AF93060284602B070BDFF
:1011600073B50446028A0E460521FFF77FFF03216F
:1011700020460DF10602FFF75BFF054638B9BDF8C2
:101180000600FFF79FF8E168FFF7F0F830602846A7
:1011900002B070BD80B51F4D1F4F204E388AFFF73B
:1011A00091F81F4C1F4B19682378EBB9FFF79AFA97
:1011B00080B101228021284601F086FB01221A48D5
:1011C000114601F081FB01220221174801F07CFB4E
:1011D0000123237030464FF4005101F07AFB4FF4A5
:1011E000FA7003F056FCD9E7FFF75EFA0028F1D059
:1011F00000228021284601F067FB002201210A48D5
:1012000001F062FB00220221074801F05DFB002390
:10121000DFE700BF00080140480000200010014047
:10122000F003002000000020000C01400D220021EE
:1012300080B5424804F02AFA4148FFF7E1FE414CEC
:10124000414D23780A2B1AD8DFE803F006353D40DC
:101250004346494C4F5D6900FFF74EFB3B4F064646
:1012600088B101222846114601F02EFB0122344BA1
:1012700083F8CB2000233B70237813442370322063
:1012800003F007FCDDE702460121284601F01CFBC4
:101290003B782670092B02D801333B70EFE7284BCF
:1012A00083F8CB60FFF7A4FE3E70294B1B68002B30
:1012B000E5D09847E3E7FFF75DFB10B120780130F8
:1012C000C0B22070DBE7FFF775FBF6E7FFF78EFB98
:1012D000F3E7FFF7B7FBF0E7FFF7DCFBEDE7FFF71E
:1012E0002FFCEAE7FFF752FCE7E7FFF793FC10B1AA
:1012F00020780130C0B2174B20701B78002BD4D05F
:1013000000232370D1E7134B1B78002BCDD1FFF7BF
:101310002DFE10B120780130C0B22070C5E70D4E0F
:1013200033780BB9FFF742FE00232370084B1B688C
:1013300003B1984701233370A1E700BF8B01002060
:101340004800002021010020000801402201002067
:10135000980100202001002008B5FFF725FA64203D
:1013600003F097FBF9E7000042F2107508B50A4C4C
:1013700000F04AFE01F0E6F8D4F80C32C01AA84298
:1013800005D900F013FE01F0DDF8C4F80C020A20C4
:1013900003F07FFBECE700BF7C05002010B590B0A8
:1013A0001422002108A804F071F91422002101A8D8
:1013B00004F06CF902244FF480330122CDE90D438F
:1013C000CDE906234FF4E01306A80A920F9302F02A
:1013D0009BFC08B172B6FEE70F23CDE901344FF450
:1013E00080630390CDE90430214601A802F04EFE4F
:1013F00008B172B6FEE710B010BD000080B5A2B013
:1014000001F082F8FFF7CAFF102200211BA804F0A8
:101410003DF9834B4FF460419A69824842F01002D3
:101420009A619A69002402F010020292029A9A6963
:10143000012642F020029A619A69022502F02002F8
:101440000392039A9A6942F004029A619A6902F03F
:1014500004020492049A9A6942F008029A619B6914
:10146000002203F008030593059B01F02DFA0022EA
:10147000C3216D4801F028FA002223216B4801F0B6
:1014800023FA4FF4604367481BA9CDE91B36CDE929
:101490001D4501F03FF9C32363481BA9CDE91B3665
:1014A000CDE91D4501F036F9232360481BA9CDE99C
:1014B0001B36CDE91D4501F02DF94FF401435A4883
:1014C0001BA9CDE91B341D9401F024F918235748BA
:1014D0001BA9CDE91B340C261D9401F01BF94FF418
:1014E000165353485349C0E90244C0E90013C0E908
:1014F00005640461C46102F01FFF08B172B6FEE723
:101500004FF4E1344C4D4D4BC5E90200C5E90406EA
:10151000C5E906002846C5E9003402F00DFF034680
:1015200008B172B6FEE74648464AC0E90233C0E950
:101530000024C0E90436C0E9063302F0FDFE08B11C
:1015400072B6FEE7404C414A414BC4E90200C4E98F
:1015500000234FF48043C4E90600C4E9043020624C
:10156000204601F0E1FA074608B172B6FEE73948B5
:10157000FFF74CFD2846384D00F0AAF8214680229E
:10158000364B37480095FFF785FD21468222334BC5
:1015900034480095FFF77EFD2146334C88222F4BBF
:1015A0003248009506ADFFF775FD0FCC0FC594E8E6
:1015B000070085E80700394606A803F042FA2C4BDD
:1015C00004F10C060DAD18600FCE0FC596E80700AC
:1015D00085E8070039460DA803F033FA254B04F1DE
:1015E000280614AD18600FCE0FC596E8070085E8F1
:1015F0000700394614A803F024FA1F4B1BAD4434EE
:1016000018600FCC0FC594E8070085E8070039463D
:101610001BA803F016FA194B186003F00DFAFEE749
:10162000001002400010014000080140000C014081
:10163000DC040020003801409404002000440040F5
:101640004C040020004800402405002000540040C5
:10165000A0860100ED0F000800004040CDCCCC3D3D
:10166000240400200C040020FC560008F403002091
:101670004804002044040020400400203C040020D2
:101680000268034B9A4201D100F068BC704700BF6A
:101690000044004008B50A4A0368934203D1BDE8FC
:1016A000084000F09DBC074A934208D14FF4004126
:1016B000054801F00EF90022044B83F8CB2008BD49
:1016C0000044004000380140001001404800002064
:1016D00038B558B30025164B164C1B782060237183
:1016E00084F80A52A4F80652A4F8085200F02AFF1F
:1016F0004FF480722946C4F80C02601D03F0C6FF47
:101700004FF48072294604F2051003F0BFFF2068F1
:1017100090F84230202B01D002F0E2FEBDE83840C4
:101720000549012251F8050C03F075B9012038BDB7
:10173000040000207C0500208105002002460144B1
:101740004FF6FF7030B5094D8A4200D130BD0824F4
:1017500012F8013B584040F300032B4083EA50034A
:1017600098B2631E13F0FF04F5D1EDE701A0FFFF6F
:10177000032938B504460D460ED9023989B2FFF760
:10178000DDFF611911F8012C11F8023C43EA022334
:101790001B1A5842584138BD0020FCE770B50C4672
:1017A0000646FFF7CBFF1E4D33193055000A58701F
:1017B0002868023402F00CFFA4B2012000F0C8FE39
:1017C000332C224634BF6423C8233146286802F0F4
:1017D000E2FD044650B14FF40041124801F079F89F
:1017E000286802F07DFE0724204670BD02464FF4B3
:1017F00080410C4801F068F821464FF48072681D62
:10180000A5F8064285F80A4203F040FF012000F0E7
:101810009FFE2946012251F8050B03F0FCF8E3E78F
:101820007C05002000100140074B60F07F001A7912
:1018300083F8060183F8071103F20510032183F8EA
:101840000521FFF7ABBF00BF7C0500204E2813B574
:101850001AD9A0F58073082B01D9002411E06FF488
:1018600080731844072800F29C81DFE810F09D0186
:10187000A001A301D20108000800A601BF0140F2A7
:101880000114204602B010BD4E28E6D801A353F83B
:1018900020F000BFD1190008D7190008DD19000891
:1018A000E3190008E9190008EF190008F519000804
:1018B000FB190008011A0008071A00080F1A00088F
:1018C000151A00081B1A0008231A00082B1A000812
:1018D000311A0008391A0008411A0008491A00088C
:1018E000511A0008691A0008691A0008691A0008E4
:1018F000691A0008691A0008691A0008811A0008A4
:10190000811A0008991A0008991A0008991A000803
:10191000991A0008991A0008991A0008591A00081B
:10192000611A0008B11A0008B71A0008BD1A0008A9
:10193000C31A0008C91A0008CF1A0008D51A0008EF
:10194000DB1A00085B1800085B1800085B18000829
:101950005B180008E11A0008E51A0008E91A0008F7
:10196000ED1A0008F11A0008F51A0008F91A000823
:10197000FD1A0008011B0008051B0008091B0008D0
:101980000D1B0008111B0008171B00081B1B00087B
:10199000231B0008291B0008471B0008511B0008D7
:1019A0005B1B0008611B0008671B00086D1B00081B
:1019B000731B0008791B00087F1B0008891B0008A7
:1019C0008D1B0008931B0008971B00089B1B000839
:1019D000914B1C8A55E7904B5C8A52E78E4B9C8A50
:1019E0004FE78D4BDC8A4CE78B4B1C8B49E78A4BCE
:1019F0009C7E46E7884BDC7E43E7874B1C7F40E7B5
:101A0000854B5C7F3DE7844B93F8CB4039E7824BB5
:101A10009C7F36E7804BDC7F33E77F4B93F8204099
:101A20002FE77D4B93F821402BE77B4B5C8C28E71D
:101A3000794B93F8244024E7774B93F8254020E72F
:101A4000754B93F826401CE7734B93F8274018E733
:101A5000714B93F8284014E76F4B93F8CA4010E796
:101A60006D4BB3F8D0400CE76B4B143893F824203F
:101A7000C0B282427FF6F1AE03EB40035C8D00E71B
:101A8000654B1A3893F82520C0B282427FF6E5AE46
:101A9000034493F88A40F4E65F4B1C3893F8242003
:101AA000C0B282427FF6D9AE034493F89A40E8E68A
:101AB000594B1C88E5E6584B5C88E2E6564B9C88FF
:101AC000DFE6554BDC88DCE6534B1C89D9E6524BEC
:101AD0005C89D6E6504B9C89D3E64F4BDC89D0E637
:101AE0004E4BE6E74D4BE7E74C4BE8E74B4BE9E75E
:101AF0004A4BEAE7494BEBE7484BECE7474B68E7D3
:101B0000464B69E7454B6AE7444B6BE7434B6CE751
:101B1000424B5C8BB5E6414BE0E7FEF73DFE0446E9
:101B2000AFE63F4B1C78ACE63E4801A9FFF7E2FA6E
:101B300000287FF492AE3C490198FEF717FCFEF7AF
:101B4000DBFD84B29DE6374801A9FFF7EFFAEFE726
:101B5000344801A9FFF704FBEAE7344801A9E5E7A7
:101B6000324801A9F1E7314801A9F3E7304801A95A
:101B7000DCE72F4801A9E8E72D4801A9EAE702219F
:101B80002C4800F09BFECAE70121F9E780212A4892
:101B9000F7E72021F4E74021F9E7284B28491868A6
:101BA000CBE7284B1C796CE6274B5C7869E6264B23
:101BB0009C7866E6244BDC7863E6174B93F8CB0001
:101BC000164B5B8B0BB140F00200204B40211B7881
:101BD0005B4203F0040340EA0304174800F06EFE82
:101BE00000283FF44EAE44F00800AAE70A4B93F8F1
:101BF000CB00D3E934231A43084B80F001045B8BFC
:101C000018BF44F00204002B7FF43BAE44F0040004
:101C100097E7022435E600BF48000020BE070020F9
:101C20003C00002024040020000020410C0400207F
:101C3000F4030020000C01400008014000000020D7
:101C40000000C8427C05002004000020F0030020B2
:101C500008B503463F2B08463CD016D8312B33D06D
:101C60000CD82B2B03D8232B39D8052005E0302B9B
:101C7000FBD100F0AFFA90BB062008BD3C2B26D06C
:101C80003D2BF2D100F09EFAF5E74E2B29D06FF4F0
:101C9000807213449AB2082AE7D8082BE5D801A22B
:101CA00052F823F0031D00080F1D0008191D00083D
:101CB0006B1C00086B1C00086B1C00086B1C0008E8
:101CC0006B1C0008FD1C000800F091FAD3E700F03F
:101CD00071FAD0E7081E18BF0120FEF751FD002061
:101CE000CBE7A1F57A73B3F57A7FC5D8FEF7E6FAAC
:101CF0000C49FEF7EFFB0C4B1860F0E70128BBD155
:101D0000EDE7431E042BB7D8084B5870E7E70228CD
:101D1000B2D8064B9870E2E7431E012BACD8034BB8
:101D2000D870DCE70000C84200000020040000205A
:101D300008292DE9F0413AD18588B0F802806DBAC2
:101D4000ADB26B1E98FA98F87C2B1FFA88F806D96A
:101D500003210846FFF768FD0620BDE8F081154C19
:101D6000002722796E0084F80521032284F8076198
:101D700084F8062108EB070080B2FFF767FD013702
:101D8000030A84F80831BBB2AB4284F8090104F1BC
:101D90000204EFD30336322DB6B202D9022000F08E
:101DA000D7FB3146BDE8F0410348FFF7F7BC0320FD
:101DB000D3E700BF7C05002081060020082938B544
:101DC00005461CD18188408849BA40BA89B280B2A0
:101DD000FFF73EFF044660B1052808D006280CBF77
:101DE000032104210620FFF71FFD204638BD0221F4
:101DF000F8E72846BDE838400621FFF7CFBC0324AA
:101E0000F3E7000008292DE9F04104464FD9868800
:101E1000478876BAB6B2721E7A2A837902D8B3EBB3
:101E2000460F07D003211020FFF7FEFC06252846A9
:101E3000BDE8F0810933994239D14FF000087FBAEB
:101E4000BFB2E179237A07EB080043EA012180B2AF
:101E5000FFF7FEFE054658B1052807D006280CBF3F
:101E6000032104211020FFF7DFFCE0E70221F9E75E
:101E700008F101081FFA88F39E4204F10204E0D839
:101E80000C480621027980F8087180F8052110229B
:101E900080F806213A0A80F8072180F8095180F875
:101EA0000A61BDE8F04100F20510FFF777BC032599
:101EB000BDE700BF7C050020F8B50124234D0329B0
:101EC00006460F462C7008D821484FF4004100F018
:101ED00000FD002303202B70F8BD1E4B02781B79F8
:101EE0009A4202D000202870F6E7FFF741FC10B9B3
:101EF00028700220F0E7164822464FF4804100F097
:101F0000E3FC7078062808D0102816D0032805D0E6
:101F10000121FFF789FC0420DEE702240E4B1B7928
:101F20001C42F5D00628394609D0102830460AD080
:101F3000FFF7FEFE00232B70CEE70424EEE73046C9
:101F4000FFF73CFFF6E7FFF75DFFF3E778050020BA
:101F5000001001407C0500200400002038B5124C20
:101F6000256885421FD100F0EDFAB4F80632C4F8B6
:101F70000C02FE2B13D82A68591C526823445A714C
:101F80000123A4F80612B4F806122068053184F87B
:101F90000A3221440122BDE8384002F03CBD002352
:101FA000A4F80632EFE738BD7C05002038B50023E1
:101FB0000A4C2546A4F8063284F80A3200F0C2FA28
:101FC000C4F80C0255F8050B02F08AFA294620687D
:101FD0000122BDE8384002F01EBD00BF7C05002094
:101FE00008B5074B1B68834208D14FF400410548F0
:101FF00000F06FFCBDE80840FFF7D8BF08BD00BF88
:102000007C0500200010014038B51B4C94F80A52A2
:10201000B4F80612EDB171B1032902D9601DFFF7C2
:102020004BFF00214FF480721448A4F8061284F884
:102030000A1203F02BFB206890F84230202B1AD1B3
:10204000B4F80632BBB9BDE8384001220B4902F0B2
:10205000E2BC0029EFD000F075FAD4F80C32C01AB7
:102060003228E8D94FF480722946A4F8065284F841
:102070000A52601DDDE738BD7C0500208105002087
:102080004FF6FF70002330B5084C094D14F8012BB2
:102090005040082240F30001294081EA5000013AF3
:1020A00080B2F7D10133062BF0D130BD8C07002070
:1020B00001A0FFFF00220D4B10B51A609A8001228B
:1020C0009C1E03F8022C062361716370E070FFF719
:1020D000D7FFA071000AE07164230822214604485A
:1020E00002F059F9B0FA80F0400910BD8E070020C7
:1020F0004C04002070B52B4C00212A22204603F00E
:10210000C5FA01250022284B9E1E1A609A8003F80A
:10211000025C0323737013237371FFF7B1FF030A8B
:10212000B071F371082264233146204802F033F97C
:1021300008B1002070BD4FF4FA732A2221461B48D3
:1021400002F077F90028F4D1A288194B52BA1A800C
:10215000E288284652BA5A80228952BA9A80628905
:1021600052BADA80A28952BA1A81E28952BA5A81E5
:10217000228A52BA9A81228B52BA5A82628B52BAFE
:102180009A82A28B52BADA82E28B52BA1A82628C9B
:1021900052BADA81E28C52BA1A83228D52BA5A8329
:1021A000C8E700BF940700208E0700204C040020E1
:1021B000BE0700200128014602D81220FFF77ABF8F
:1021C000002070470128014602D81120FFF772BF96
:1021D0000020704740F6B832A0F516739BB29342C8
:1021E000014602D80120FFF765BF00207047B0F517
:1021F000FA7F014602D80220FFF75CBF002070473B
:10220000114B07B59A690F2142F001029A619A6950
:102210006FF0010002F001020092009ADA6942F0C8
:102220008052DA61DB69002203F080530193019B45
:1022300000F0B2F9054A536823F0E06343F00073FD
:10224000536003B05DF804FB001002400000014041
:1022500010B5044686B01022002102A803F016FA39
:102260002268154B9A4224D1144CC022A369144809
:1022700043F00803A361A36902A903F008030093D4
:10228000009B1223CDE902230323059300F042FAB9
:10229000E3691F2043F40013E361E369002203F4C0
:1022A000001301930521019B00F076F91F2000F037
:1022B000A3F906B010BD00BF00540040001002405A
:1022C000000C014010B504468AB01022002106A877
:1022D00003F0DCF923684B4A934231D14A4B4FF467
:1022E00000709A6906A942F480429A619A690024B2
:1022F00002F480420092009A9A6942F004029A61C4
:102300009B6903F004030193019B0223CDE90603BB
:1023100003233E48099300F0FDF94FF480633B48E6
:1023200006A9CDE90634089400F0F4F925202246E8
:10233000052100F031F9252000F05EF90AB010BD4A
:10234000334A93422CD1304B0421DA692F4842F4AE
:102350000032DA61DA69002402F400320292029A51
:102360009A6942F004029A619B6903F004030393A3
:10237000039B0223CDE90613032306A9099300F06A
:10238000C9F90823214806A9CDE90634089400F0CC
:10239000C1F926202246052100F0FEF82620CBE7D1
:1023A0001C4A9342CAD1184B1B48DA6906A942F469
:1023B0008022DA61DA69002402F480220492049A0D
:1023C0009A6942F008029A619B694FF4806203F0B7
:1023D00008030593059B0223CDE9062303230993F4
:1023E00000F098F94FF400630B4806A9CDE90634D4
:1023F000089400F08FF927202246052100F0CCF840
:10240000272099E7003801400010024000080140F1
:102410000044004000480040000C0140FEE7FEE799
:10242000FEE7FEE7FEE7704708B500F07FF802F030
:10243000F5FE012803D0BDE8084002F0ABBF08BD9F
:10244000014801F009B800BF24050020014802F04E
:102450007FB900BFDC040020014802F079B900BF59
:1024600094040020014802F073B900BF4C0400201E
:1024700070470000FFF7FCFF0B480C490C4A002393
:1024800002E0D458C4500433C4188C42F9D3094A2A
:10249000094C002301E013600432A242FBD303F095
:1024A000FDF8FEF7ABFF7047000000201C00002085
:1024B000CC5700082000002030310020FEE700004B
:1024C00038B50E4B05461A784FF47A73B3FBF2F326
:1024D0000B4A1068B0FBF3F000F09CF8044658B9C2
:1024E0000F2D09D8024629464FF0FF3000F054F86E
:1024F0002046044B1D6038BD0120FCE71000002081
:102500000C00002014000020074A08B513680320BF
:1025100043F01003136000F02DF80F20FFF7D0FFF9
:10252000FFF76EFE002008BD00200240034A044B66
:1025300011681B780B441360704700BFDC07002054
:1025400010000020014B1868704700BFDC07002016
:1025500038B50446FFF7F6FF0546631C1EBF044B63
:102560001B78E418FFF7EEFF431BA342FAD338BDF4
:102570001000002007490302CA6803F4E06322F454
:10258000E0621204120C134343F0BF6343F40033C0
:10259000CB60704700ED00E0154B30B5DC68C4F34C
:1025A0000224C4F10703251D042B28BF0423062D94
:1025B0004FF0FF3594BF0024033C05FA03F321EAF2
:1025C0000303A54022EA0502A340002843EA0203D0
:1025D000ACBF00F16040074A4FEA0313DBB2ABBF68
:1025E00000F5614000F00F0080F80033135430BD57
:1025F00000ED00E014ED00E0002807DB01234109B5
:10260000034A00F01F00834042F82130704700BFAA
:1026100000E100E00138B0F1807F0BD24FF0E02301
:10262000F021054A586182F82310002007229861A2
:102630001A6170470120704700ED00E090F82120FA
:102640000346022A06D0042282630120002283F876
:10265000202070470268C06B116821F00E011160E4
:10266000116821F00101116001211A6C01FA02F2D6
:102670004260002083F82110E8E7000008B590F8D8
:102680002130022B03D004238363012008BD03689B
:102690001A6822F00E021A601A6822F001021A600B
:1026A000174A93421FD0143293421ED014329342E1
:1026B0001DD0143293421DD0143293421DD01432D7
:1026C000934214BF4FF080734FF480130D4A536050
:1026D000012380F82130002380F82030436B03B1C0
:1026E00098470020D2E70123F0E71023EEE74FF4EC
:1026F0008073EBE74FF48053E8E74FF48033E5E76E
:10270000080002400000024090F821007047806BF2
:10271000704700002DE9F74F00244FF00F0E2646BA
:10272000DFF884C1614B00F104080A6832FA06F54B
:1027300002D103B0BDE8F08F012505FA06F702EAE1
:10274000070537EA020276D14A68032A07D8013A18
:10275000022A00F28380DFE802F091969C00122AA0
:1027600000F0948069D8112A00F08A80FF2D94BF70
:102770008146C1464FEA8602D9F8007088BF203AE8
:102780000EFA02FA27EA0A0704FA02F21743C9F816
:102790000070D1F8049019F0805F4CD0DCF818205C
:1027A00026F0030742F00102CCF81820DCF81820CC
:1027B00007F1804702F00102019207F5803706F029
:1027C000030A019A4FEA8A0ABA680EFA0AFB22EA59
:1027D0000B0B374A904260D002F5806290425ED087
:1027E00002F5806290425CD002F58062904214BF94
:1027F0000422032202FA0AF242EA0B02BA609A6841
:1028000019F4801F14BF2A43AA439A60DA6819F4A6
:10281000001F14BF2A43AA43DA605A6819F4003F24
:1028200014BF2A43AA435A601A6819F4803F14BFA0
:102830002A43AA431A60013677E7DFF878904A45C1
:102840000CD014D8A9F580194A4507D009F570298C
:102850004A4503D0A9F580194A4587D18A68D2B183
:10286000012A4FF008040CBF076147617EE7DFF8DB
:1028700048904A45F2D009F58039EDE7CC6875E714
:10288000CC68043472E7CC6808346FE7CC680C3449
:102890006CE700246AE7042468E70022AAE7012223
:1028A000A8E70222A6E700BF001002400004014092
:1028B0000008014000002210000031108368194216
:1028C00014BF0120002070470AB10161704709045C
:1028D000FBE7C36801EA030221EA030141EA02417E
:1028E00001617047016800224B6913F4806310D0C6
:1028F0006FF480634B612023026380F83D3080F8E1
:102900003E20036C80F83C2043F004030364012064
:102910007047184670472DE9F84606460F4691461F
:102920001D464FEA114A3368BAF1010F0CBF5C69CA
:102930009C6927EA0404A4B2B4FA84F46409A145AA
:1029400001D0002025E06A1CEED0FFF7FBFD089BBC
:10295000C01AA84201D8002DE5D13368BAF1010FA1
:102960000CBF5B699B6927EA03039BB2B3FA83F34D
:102970005B099945D7D1002320220120336386F8D3
:102980003D2086F83E30326C86F83C3042F0200222
:102990003264BDE8F8862DE9F04104460F4616463C
:1029A00098462568686927EA000080B2C0B16B6963
:1029B0005A0517D52B68202243F400732B606FF45F
:1029C00080636B610023236384F83D2084F83E30EC
:1029D000236C43F0040323640023012084F83C307B
:1029E000BDE8F081731CDDD0FFF7ACFDA0EB080063
:1029F000B04201D8002ED4D123685A6927EA0202D6
:102A000092B2002ACDD000232022236384F83D20F7
:102A100084F83E30236C1343DDE770B504460D4661
:102A2000164623685B691B0601D500201EE0204680
:102A3000FFF758FFC8B96A1CF3D0FFF783FD801B6E
:102A4000A84201D8002DECD123685B6913F0800304
:102A5000E7D12022236384F83D2084F83E30226CA5
:102A600084F83C3042F020022264012070BD70B531
:102A700004460D46164623685B695B0701D50020B6
:102A80001EE02046FFF72EFFC8B96A1CF3D0FFF7FF
:102A900059FD801BA84201D8002DECD123685B6949
:102AA00013F00403E7D12022236384F83D2084F847
:102AB0003E30226C84F83C3042F020022264012037
:102AC00070BD70B504460D46164621684B6913F07B
:102AD000400301D0002011E04A69D2060FD56FF003
:102AE00010024A612022236384F83D2084F83E309E
:102AF000236C23640023012084F83C3070BDFFF771
:102B000021FD801BA84201D8002DDED123685B691E
:102B100013F04003D9D12022236384F83D2084F8A8
:102B20003E30236C1343E4E770B5044608B9012036
:102B300070BD90F83D3003F0FF021BB980F83C20D7
:102B4000FFF786FB242384F83D3023681A6822F0BF
:102B500001021A601A6842F400421A601A6822F4EC
:102B600000421A6001F02EFB3F4B65689D4294BF06
:102B70003E4B3F4B98428CBF00230123002BD6D104
:102B8000394E3C4BB542B0FBF3F388BF4FF4967619
:102B90002268516821F03F0141EA030182BF73437B
:102BA0004FF47A76B3FBF6F35160116A013321F0EA
:102BB0003F010B431362D169431E2B4821F44F415F
:102BC000854221F0FF0132D86D00B3FBF5F340F6EA
:102BD000FC700133034242D0C3F30B031943D161AC
:102BE0001168D4E9073021F0C00103430B4313609F
:102BF0009168D4E9030321F40341034321F0FF0169
:102C00000B439360D168D4E9053021F0FF01034301
:102C10000B43D3601368002043F0010313602023AB
:102C2000206484F83D30206384F83E0080E7A0688B
:102C300050B905EB4505B3FBF5F30133C3F30B03C3
:102C40007BB143F40043C9E719206843B3FBF0F3B9
:102C50000133C3F30B0323B143F44043BEE7042322
:102C6000BCE70123BAE700BFA08601007F841E00F5
:102C7000FF083D0040420F002DE9F043044685B0B7
:102C800098460D4691460C9FFFF75CFC94F83D304A
:102C90000646202B04D00225284605B0BDE8F08367
:102CA00000901923012220465C49FFF734FE0028DA
:102CB000F1D194F83C30012BEDD00123216884F848
:102CC0003C300B68DA075EBF0B6843F001030B6012
:102CD0000B6823F400630B60212384F83D3010233C
:102CE00084F83E3000232364A4F82A80638DC4F85E
:102CF000249023854A4BE362E36A082B04D0012B1E
:102D000002D013F5803F04D10B6843F480730B604D
:102D100002E0236B122BF7D000223B464FF001114B
:102D200020460096FFF7F7FD226840B11368DB05E7
:102D300001D40125B0E74FF400732364F9E7236958
:102D4000B3F5804F21D105F0FE05156133463A46B3
:102D500020463449FFF71FFE05460028E9D12368C5
:102D600003905A6903929B690393039B238DF3B9E4
:102D700021680A6842F400720A60202284F83C301C
:102D800084F83D2084F83E3086E7EB1103F006031B
:102D900043F0F0031361204633463A462249FFF7D9
:102DA000FAFD0028C5D12368EDB21D61CEE7324699
:102DB00039462046FFF731FE40B1236C042BB8D1D1
:102DC0002268136843F400731360B2E7636A2068F3
:102DD0001A4612F8011B01616262628D013A92B2D9
:102DE0006285228DD0F814C0511E89B21CF0040FE8
:102DF00021850AD049B15978023301616362638D3C
:102E0000023A013B9BB26385228532463946204611
:102E1000FFF72DFE0028A9D0CFE700BF0200100069
:102E20000000FFFF02000100080001002DE9F0434F
:102E300098460023044689B002930E469146109F9F
:102E4000FFF780FB94F83D300546202B04D0022686
:102E5000304609B0BDE8F0830090192301222046D6
:102E60008F49FFF758FD0028F1D194F83C30012B31
:102E7000EDD00123216884F83C300B68DB075EBF8E
:102E80000B6843F001030B600B6823F400630B60D5
:102E9000222384F83D30102384F83E30002323643D
:102EA000A4F82A80638DC4F8249023857D4BE362C7
:102EB000E36A0A68082B42F480620A6004D0012B9E
:102EC00002D013F5803F04D10B6843F480730B608C
:102ED00002E0236B112BF7D03B4600224FF001118B
:102EE00020460095FFF717FD236838B11B68D80509
:102EF00044BF4FF4007323640126A9E72269B2F5A9
:102F0000804F29D146F00106F6B21E612B463A46A3
:102F100020466549FFF73FFD06460028ECD1228D8B
:102F20002368002A4DD103905A6903929A6903924B
:102F3000039A1A6842F400721A60DFF87081DFF8B1
:102F40007091238D002B6CD1202284F83C3084F8C2
:102F50003D2084F83E307BE74FEAE61808F006088B
:102F600048F0F0021A6120462B463A465149FFF7D5
:102F700012FD0028C0D12368F6B23A461E612046F1
:102F80002B464949FFF707FD02460028B4D12368C4
:102F9000079059692046079199690791079919681F
:102FA00041F4807119603B464FF001110095FFF725
:102FB000B2FC226808B1136899E748F0F103136185
:102FC000A4E7012A11D11A6822F480621A6072B64D
:102FD000236804905A6904929A690492049A1A68C0
:102FE00042F400721A6062B6A7E7022A1A680ED18C
:102FF00042F400621A6072B6236805905A6905921D
:103000009A690592059A1A6822F48062EAE742F406
:1030100080621A6006905A6906929B690693069B25
:103020008BE7032B00F28880012B16D12A46394604
:103030002046FFF746FD00287FF45EAF23681A693B
:10304000636A1A70636A01336362238D013B2385CF
:10305000638D013B9BB2638573E7022B4FF0000247
:103060003B4641462046009526D1FFF754FC0028F8
:103070007FF442AF72B623681A6842F400721A6095
:103080001A69636A1A70636A01336362238D013BB4
:103090002385638D013B9BB2638562B6CEE700BF9B
:1030A000020010000000FFFF020001000400010008
:1030B0000C00002008000100FFF72DFC00287FF421
:1030C0001BAF2268136823F48063136072B646F264
:1030D000A81123681A69636A1A70626A531C6362D2
:1030E000238D013B2385638D013B9BB26385D9F81A
:1030F0000030B3FBF1F323214B430293029B013BCE
:103100000293029B6BB92022236384F83D2084F84C
:103110003E30226C42F02002226462B684F83C30D9
:10312000EAE6236859694907E8D5196841F400714E
:1031300019601B695370A6E72A4639462046FFF7F7
:10314000C0FC00287FF4D8AE23681A69636A1A703D
:10315000628D616A013A92B24B1C62852268636299
:10316000238D5069013B9BB2400723857FF5E9AE73
:10317000032B02BF136823F48063136013694B7041
:1031800060E700BF704770477047704770477047EF
:10319000704790F83D2008B5036DD2B283B9C36C77
:1031A0000268012B836C05D1DBB21361036D02331E
:1031B000036508BDC3F307231361036D0133F7E70C
:1031C000036D012B03D1836C0268DBB2F4E7036D5E
:1031D000022B2FD1222A05D10268136843F4807391
:1031E0001360EAE7438D9BB263B1212A0AD1436A97
:1031F000026813F8011B11614362438D013B9BB2CE
:103200004385D6E7438D9BB2002BD2D1212AD0D162
:103210000268516821F4E0615160116841F4007165
:1032200011602022036380F83D2080F83E30FFF7D4
:10323000AFFFBEE703685A69120644BF00221A6155
:10324000B7E7704770477047002337B546F2A811BB
:1032500001932C4B406A1B6890F83D20B3FBF1F3BF
:1032600023214B4301930368D2B2019941BB016C06
:1032700041F020010164446B0CB10021A162816B1B
:1032800009B100258D621D6825F480651D6000254B
:10329000458504B1656301B14D63196821F00101F1
:1032A000196090F83D10602911D1202380F83D303D
:1032B000002380F83E300364FFF7C5FF03B030BD44
:1032C00001990139019119688905CED4D3E702F03B
:1032D0002802282A0ED1196841F0010119601968E5
:1032E00041F4806119600023036380F83D20FFF7FB
:1032F000A9FFE3E7202380F83D30002380F83E302B
:10330000F5E700BF0C00002010B590F83D2090F8C4
:103310003E300446102BD9B2D2B2036801D0402906
:1033200013D1222A11D1196821F40061196059685A
:1033300011F4006106D1602A1EBF202284F83D20CE
:1033400084F83E100022226307E002F028012829B9
:10335000EDD10022226384F83D105A6812F4006215
:103360004FD05A68606B22F400625A6090F82130A6
:10337000012B374B2BD04363FFF780F950B1226804
:10338000606B136823F001031360202384F83D3041
:10339000436B9847236C19071FBF2268536823F4B7
:1033A000E063536094F83D30226CDBB252070DD5D8
:1033B000282B0BD1274B2022E362002320462363D6
:1033C00084F83D2084F83E30FFF7E1FE10BDA06B8D
:1033D0004363FFF753F90028DCD023685A6951068C
:1033E00005D51A69636A1A70636A013363622268D9
:1033F000A06B136823F001031360202384F83D3091
:10340000C6E794F83D10602915D1202184F83D10BD
:1034100022645A69520605D51A69636A1A70636A8A
:103420000133636222682046136823F001031360AE
:10343000FFF709FFAEE75A69500605D51A69636AB6
:103440001A70636A013363622046FFF7FBFEA1E74F
:10345000493200080000FFFFF0B5044603688FB052
:103460005A68C66A90F83E0094F83D101028C5B21C
:10347000C9B202D0402D40F0E5829F69586910F032
:10348000010F07D1B6F52A0F02D0B6F12A4F51D15C
:103490000FB0F0BD96054DD5E26AB2F52A0F0CD1FA
:1034A0000122E26294F83E20402A11D1226D52B9E5
:1034B000626C02F0FE021A61EAE7E26AB2F12A4F98
:1034C000F0D10822EDE7626C42F00102D2B2F2E7DD
:1034D0002269B2F5804F1AD194F83D20212A626CFE
:1034E00011D102F0FE021A61626B0AB1926A2AB926
:1034F000A26B002ACCD0926A002AC9D05A6842F442
:1035000000625A60C4E742F00102D2B2EBE7226DDA
:1035100032B9626CD21102F0060242F0F002CAE740
:10352000226D012AB4D1626CD21102F0060242F07F
:10353000F102C0E7060703D5960501D5626CE4E702
:10354000860740F1F080960540F1ED8094F83E103A
:10355000E26A256B94F83D00C9B2222840F0DB8076
:10356000206D40B9402906D100905A6900929B69AC
:103570000093009B8CE7216D89B92069B0F5404F1D
:103580000DD101915A6901929A690192019A1A68C2
:1035900042F480721A60236D0133236578E7618DF0
:1035A00089B251B902915A6902929A690292029AB9
:1035B0001A6842F400721A6019E0618D89B201291B
:1035C00049D112F5803F1BD11A6822F480621A603B
:1035D0005A6812F400620CD01A6822F480621A60F1
:1035E000002203925A6903929B690393039B002371
:1035F000D3E704925A6904929A690492049AD7E72D
:10360000082A1CD0202A1AD0122D0DD1012A16D139
:103610001A6822F480621A60002205925A690592A3
:103620009B690593059BE2E7102AF1D8864941FA88
:1036300002F2D707ECD41A6842F48062EBE71A680A
:1036400022F480621A60002206925A6906929A69F0
:103650000692069AACE7618D89B2022938D1102A08
:1036600003D87A49D140CE0718D4196841F40061D3
:103670001960002107915969079199690791079984
:10368000196821F48061196059680D05AFD5202AA9
:103690001BD8072A0ED8012AA9D111E0196841F4D4
:1036A0008061196000210891596908919969089110
:1036B0000899E9E7A2F10801654ACA40D00796D502
:1036C0005A6842F480525A6091E712F5803FE3E76E
:1036D000196841F4806119605968090510D5202ADC
:1036E00016D8072A06D8012A0AD15A6842F480520D
:1036F0005A6005E0A2F10801554ACA40D207F4D445
:10370000002209925A6909929B690993099B6EE705
:1037100012F5803FE8E700220A925A690A929B69F3
:103720000A930A9BB4E67F0740F194805E683605F1
:103730003FF5AEAE070600F004063ED550053CD579
:10374000002E3DD194F83D20258D94F83E10D2B244
:10375000E06AC9B2C5B9212A18D1082858D0202852
:1037600056D010F5803F53D05A6822F4E0625A6078
:1037700011232363002384F83E302023204684F85D
:103780003D30FFF7FFFC83E6212A05D040297FF476
:103790007FAE222A7FF47CAE628D92B21AB95A684B
:1037A00022F48062ADE694F83E20402A16D12046ED
:1037B0000FB0BDE8F040FFF7ECBC002E3FF468AE60
:1037C00097057FF565AE212939D1E16A94F83D204E
:1037D000212A7FF45DAE628D92B24AB1626A12F81C
:1037E000011B19616262638D013B9BB263854FE6E9
:1037F00008290DD020290BD011F5803F08D0596839
:1038000021F4E06159601123236384F83E20B4E77A
:103810005A68204622F4E0625A601A6842F4007244
:103820001A6000232022236384F83D2094F83E2070
:1038300084F83E30402AA4D1FFF7AAFC28E6402DA8
:103840007FF426AEB3E700BFEBFFFEFF14000100DC
:103850000101000159680E053FF51AAE450600F05A
:10386000040140F18680500540F18380002940F03A
:10387000838094F83D20222A7FF40AAEE06A628DAC
:1038800092B2032A14D91A69636A1A70636A0133FF
:103890006362638D013B9BB26385638D9BB2032B97
:1038A0007FF4F6AD2268536823F480635360EFE53C
:1038B000E56A022D3FF473AF012A3FF670AF0B911A
:1038C00046F2A811784A1268B2FBF1F202EB8202CA
:1038D0000B920B9A013A0B920B99D1B9226C2046AC
:1038E00042F0200222645A6822F4E0625A601A69A7
:1038F000636A1A70636A01336362638D013B9BB232
:103900006385202384F83D3084F83E10FFF79AFC4D
:10391000BEE51A6812F40072DBD1196821F48061E7
:103920001960596821F4E06159601969636A197076
:10393000636A01336362638D013B9BB2638520231D
:1039400084F83D3094F83E3084F83E20402B04D17A
:1039500022632046FFF775FC9AE5082801D020284D
:1039600001D1002300E0122320462363FFF70BFC64
:103970008EE500293FF48CAD92057FF589ADE26AB2
:10398000608D616A80B2042809D15A6822F480628D
:103990005A601B690B70636A0133636223E7608DB1
:1039A00080B203280CD15868042A20F48060586043
:1039B000EFD0022AEDD01A6822F480621A60E8E79C
:1039C000608D80B20228E4D1042A33D007D8012ABE
:1039D00007D0022A2ED0186840F4007004E0102AA4
:1039E000F9D1186820F4806018601B690B70616A57
:1039F0004B1C6362638D013B9BB2638523681B692B
:103A00004B70636A216801336362638D013B9BB233
:103A100063854B6823F440734B60202384F83D306A
:103A200094F83E30402B4FF0000384F83E3005D12F
:103A300023638EE7186840F48060D5E7082A90D0A9
:103A4000202A8DE7206C10B30025586987072DD5F3
:103A500096052BD5226C02B19D6994F83D2002F0A9
:103A60002802282A16D15A682F0622F480625A604A
:103A70004FF0000385F00401204654BFA289228B39
:103A8000C1F3800184F83C30FFF780FB00E59D69BD
:103A90005869DBE700220C9259690C919B6984F804
:103AA0003C200C930C9BF3E40C000020C60640F174
:103AB000B180950540F1AE8094F83D505A68EDB262
:103AC00022F4E0625A6000220D925A690D921A683F
:103AD00042F001021A600D9A1A6822F480621A609C
:103AE0005A68100520D505F0F702222A4AD1A06BAA
:103AF0000268526892B26285628D92B21AB1226CEB
:103B000042F0040222645A6822F400625A60FEF70E
:103B1000FBFD012808D0A06B794B4363FEF7AEFD97
:103B200010B1A06B436B9847638D9BB213B32368AE
:103B30005A69510709D51A69636A1A70636A0133B1
:103B40006362638D013B9BB2638523685A695206A9
:103B500009D51A69636A1A70636A01336362638DF7
:103B6000013B9BB26385638D9BB21BB1236C43F019
:103B700004032364236C13B320460FB0BDE8F04068
:103B8000FFF7C2BB606B0268526892B26285628DB9
:103B900092B21AB1226C42F0040222645A6822F4F2
:103BA00000625A60FEF7B0FD0128BDD0606B544B37
:103BB0004363FEF763FD0028B6D0606BB2E72A2DA1
:103BC00006D123632823204684F83D30FFF7DDFA31
:103BD00094F83D30282B0CD14A4B2022E36200237D
:103BE0002046236384F83D2084F83E30FFF7CFFA67
:103BF0004EE4236B222B02D0222D7FF449AC00230C
:103C00002022236384F83D2084F83E302046FFF7CD
:103C1000BCFA3DE401F0F701212900F0040535D19B
:103C2000070627D5560525D53DBB94F83D00628D86
:103C3000C0B292B2002A3FF42BAC626A12F8015B68
:103C40001D616262628D013A92B26285628D92B2AA
:103C5000002A7FF41DAC29287FF41AAC5A6820464C
:103C600022F480625A602823216384F83D30FFF7F4
:103C70008BFA0DE4002D3FF40BAC95057FF508ACF5
:103C8000628D92B2002A3FF403ACA7E5400627D527
:103C9000510525D53DBB94F83D20618DD2B289B246
:103CA00000293FF4F5AB1969636A1970636A01333F
:103CB0006362638D013B9BB26385638D9BB2002B76
:103CC0007FF4E6AB2A2A7FF4E3AB2268536823F43F
:103CD0008063536022232363282384F83D3095E7D3
:103CE000002D3FF4D5AB92057FF5D2AB628D92B239
:103CF000002A3FF4CDAB1A69636A1A704BE600BF25
:103D0000493200080000FFFF2DE9F341054638B3B2
:103D10000368DB0710D42B689F075ED42B68190754
:103D200000F195802B685A0700F1C180EB69002BE8
:103D300040F02C81002029E0904C636803F00C03D4
:103D4000042B07D0636803F00C03082B0AD16368C7
:103D5000DE0307D523689C03DDD56B68002BDAD121
:103D6000012013E06B68B3F5803F12D1236843F460
:103D700080332360FEF7E6FB064623689803CAD427
:103D8000FEF7E0FB801B6428F7D9032002B0BDE8F2
:103D9000F0819BB9236823F480332360236823F4E4
:103DA00080232360FEF7CEFB064623689903B2D535
:103DB000FEF7C8FB801B6428F7D9E6E7B3F5A02F10
:103DC000236803D143F480232360CFE723F48033B7
:103DD0002360236823F48023CBE7684C636813F0E7
:103DE0000C0F07D0636803F00C03082B10D1636835
:103DF000DA030DD423689B0702D52B69012BAFD1C1
:103E000023686A6923F0F80343EAC203236085E765
:103E10002A695B4B6AB101221A60FEF793FB0646E2
:103E200023689F07ECD4FEF78DFB801B0228F7D98F
:103E3000ABE71A60FEF786FB0646236898077FF516
:103E40006DAFFEF77FFB801B0228F6D99DE7AA69BC
:103E50004A4E4B4BE2B10122C3F88024FEF772FBBD
:103E60000446736A9B070DD54FF4FA52454B1B6805
:103E7000B3FBF2F3019300BF019B5A1E0192002B8A
:103E8000F9D14FE7FEF75EFB001B0228E9D97CE77A
:103E9000C3F88024FEF756FB0446736A9F077FF53C
:103EA00041AFFEF74FFB001B0228F6D96DE7334CFC
:103EB000E369D80024D40127E36943F08053E36128
:103EC000E36903F080530093009B2F4E3368D905BC
:103ED00018D5EB68012B26D1236A43F00103236236
:103EE000FEF730FB41F288380646236A9B073FD530
:103EF000002F3FF41BAFE36923F08053E36115E724
:103F00000027E2E7336843F480733360FEF71AFB5F
:103F100080463368DA05DCD4FEF714FBA0EB08001A
:103F20006428F6D931E7ABB9236A41F2883823F027
:103F300001032362236A23F004032362FEF702FBDA
:103F40000646236A9807D3D5FEF7FCFA801B404546
:103F5000F7D91AE7052B236A03D143F00403236240
:103F6000BAE723F001032362236A23F00403B6E7D0
:103F7000FEF7E8FA801B4045B7D906E7001002407B
:103F8000000042420C000020007000402A4C626891
:103F900002F00C02082A3ED00022022B274B1A66A0
:103FA0002CD1FEF7CFFA06462368990120D42B6A5C
:103FB000B3F5803F05D16268A96822F400320A4354
:103FC0006260696A62680B4322F47412134301222F
:103FD00063601A4B1A66FEF7B5FA054623689A0124
:103FE0003FF5A8AEFEF7AEFA401B0228F6D9CCE6A4
:103FF000FEF7A8FA801B0228D6D9C6E6FEF7A2FA79
:10400000054623689B017FF595AEFEF79BFA401BA2
:104010000228F6D9B9E6012B3FF4A2AE60682B6AFC
:1040200000F480329A427FF49BAE6B6A00F4701009
:10403000C01A18BF0120A9E6001002400000424249
:104040000D4A536803F00C01082912D10B48C3F341
:104050008341DB03405C09D55368094AC3F34043FD
:104060005043084AD35CB0FBF3F07047064B58430B
:1040700070470348704700BF00100240B457000863
:1040800000127A00B257000800093D002DE9F04106
:104090000D46044610B90120BDE8F081444A13687A
:1040A00003F007038B4228D321688E0730D4CA0758
:1040B00043D43F4A136803F00703AB4265D8226834
:1040C0003C4D12F0040F6CD1130706D56B682269C2
:1040D00023F4605343EAC2036B60FFF7B1FF6B68E0
:1040E000354AC3F30313D35CD840344B1860344BC8
:1040F0001868FEF7E5F90020CEE7136823F0070300
:104100000B431360136803F007038B42C3D1CBE763
:10411000284B11F0040F1EBF5A6842F4E0625A6047
:10412000080742BF5A6842F460525A605A68A06851
:1041300022F0F00202435A60B9E762681D4E012A7C
:1041400033681AD113F4003FA5D0736841F2883860
:1041500023F0030313437360FEF7F4F90746736813
:10416000626803F00C03B3EB820FA2D0FEF7EAF90A
:10417000C01B4045F3D903208EE7022A02D113F079
:10418000007FE1E713F0020FDEE7136823F0070377
:104190002B431360136803F00703AB427FF47BAF3C
:1041A0008DE76B68E16823F4E0630B436B608BE79A
:1041B0000020024000100240A25700080C0000201E
:1041C00014000020044B054A5B68C3F30223D35C50
:1041D000034A1068D8407047001002409A57000800
:1041E0000C000020044B054A5B68C3F3C223D35C78
:1041F000034A1068D8407047001002409A570008E0
:104200000C000020026802F10C0353E8003F23F485
:1042100090730C3242E8003102680029F2D102F1B9
:10422000140353E8003F23F0010302F1140C4CE89F
:1042300000310029F3D1036B012B0BD102F10C03E8
:1042400053E8003F23F0100302F10C0C4CE800315E
:104250000029F3D1202380F8423000230363704704
:1042600010B504460368C1681A6922F440520A4333
:104270001A6182680069D9680243606921F4B0510B
:1042800021F00C0102430A43DA605A69A16922F461
:1042900040720A435A610E4A934215D1FFF7A2FFBA
:1042A00019234343626820689200B3FBF2F364224F
:1042B000B3FBF2F102FB11331B013233B3FBF2F318
:1042C00003EB0113836010BDFFF77CFFE8E700BF3D
:1042D00000380140F7B505460C4617461E462A68C9
:1042E000136834EA030301D1002021E0701CF7D0E9
:1042F000FEF728F9C01B86421CD3DEB12B68DA68B2
:104300005107ECD5802CEAD0402CE8D01A6812076F
:10431000E5D5002401941A68284601925B68019350
:10432000019BFFF76FFF082301206B6485F8404075
:1043300003B0F0BD0320FBE710B5044648B390F886
:10434000413003F0FF021BB980F84020FDF7BAFFAF
:104350002423226884F84130D368204623F4005394
:10436000D360FFF77DFF236800201A6922F4904292
:104370001A615A6922F02A025A61DA6842F400523C
:10438000DA602023606484F8413084F8423060634E
:1043900010BD0120FCE72DE9F843984690F8413024
:1043A0000446202B0E4617463FD100293FD0002A55
:1043B0003DD021230025456480F84130FEF7C2F846
:1043C000A3688146B3F5805FA784E78403D123699E
:1043D0000BB935461E46E38C9BB253B943464A4659
:1043E00040212046FFF776FF202350B984F8413062
:1043F0000AE043464A4680212046FFF76BFF28B17A
:104400002023032084F84130BDE8F88322684EB9A8
:1044100035F8023BC3F308035360E18C013989B2DC
:10442000E184D8E716F8013BF6E70220ECE701202B
:10443000EAE72DE9F8431F4690F842300446202B66
:104440000E46914648D1002948D0002A46D0222362
:104450000025456480F842300563FEF773F8A368D1
:104460008046B3F5805FA4F82C90A4F82E9003D179
:1044700023690BB935461E46E08D80B218B920235A
:1044800084F842300AE03B46424620212046FFF7AE
:1044900021FF28B12023032084F84230BDE8F883AF
:1044A00023684EB95B68C3F3080325F8023BE38D2C
:1044B000013B9BB2E385DFE7A268B2F5805F02D0E3
:1044C00032B9226922B95968C9B206F8011BEEE770
:1044D000596801F07F01F8E70220DFE70120DDE7FE
:1044E00010B50446226802F10C0353E8003F23F4A0
:1044F000F0730C3242E8003123680029F2D103F155
:10450000140252E8002F22F0010203F1140040E8E7
:1045100000210029F3D1226B012A0BD103F10C02F7
:1045200052E8002F22F0100203F10C0040E80021B5
:104530000029F3D15A6912061AD503F1140252E880
:10454000002F22F0800203F1140040E8002100292E
:10455000F3D1A06B60B14163FEF770F840B1A06B7E
:10456000FEF7D5F8202803D110230320636410BD83
:10457000226853695B0616D502F1140353E8003F25
:1045800023F0400302F1140040E800310029F3D188
:10459000E06B40B14163FEF751F820B1E06BFEF7EC
:1045A000B6F82028E0D000202023E084E085606475
:1045B00084F8423084F841302063D8E7704708B56A
:1045C0000023406AC385C384FDF764F808BD7047C3
:1045D00010B50446226802F10C0353E8003F23F4AF
:1045E00090730C3242E8003123680029F2D103F1C4
:1045F000140252E8002F22F0010203F1140040E8F7
:1046000000210029F3D1226B012A0BD103F10C0206
:1046100052E8002F22F0100203F10C0040E80021C4
:104620000029F3D15A6912F0400220D003F114029C
:1046300052E8002F22F0400203F1140040E800216C
:104640000029F3D1E06B48B10C4B4363FEF716F839
:1046500010B1E06B436B9847002010BD2023E0852C
:1046600084F8423020632046FFF7B1FFF4E72023AF
:10467000E28584F842302263F5E700BF81460008F6
:1046800008B520220023406AC38580F842200363D6
:10469000FFF79DFF08BD704790F8423007B5222B09
:1046A00042D181680268B1F5805F836A3FD10169B8
:1046B00000293FD15268C2F3080223F8022B83621B
:1046C000C38D013B9BB2C385002B2DD10268D168FD
:1046D00021F02001D160D16821F48071D16051694D
:1046E00021F001015161202280F842204363026BD6
:1046F000012A026828D1036302F10C0353E8003F4A
:1047000023F0100302F10C0C4CE800310029F3D126
:104710001368DB0605D50191136801935368019373
:10472000019B818DFFF7B7FF03B05DF804FB39B93A
:10473000016929B95268D2B21A70836A0133BEE79F
:10474000526802F07F02F7E7FCF79AFFECE70000FF
:10475000036873B51A6804461607D9685D6908D1FD
:10476000960668D58D0666D502B0BDE87040FFF7A5
:1047700093BF05F0010001F4907505435BD0D607A7
:1047800005D5CD0542BF636C43F001036364530755
:1047900004D518B1636C43F002036364960704D533
:1047A00018B1636C43F004036364150707D501F087
:1047B000200303431EBF636C43F008036364636C10
:1047C000002B32D0920604D58B0602D52046FFF787
:1047D00063FF266820467369626C03F0400302F0B1
:1047E000080253EA020522D0FFF70CFD73695E064A
:1047F00018D5226802F1140353E8003F23F0400368
:10480000143242E800310029F3D1E06B50B1744B0F
:104810004363FDF733FF40B1E06B436B02B0BDE88B
:10482000704018472046FCF735FF02B070BDFCF71A
:1048300031FF6564F9E7206B012840F09480D506CC
:1048400040F19180C80640F18E80002201921A68E2
:1048500001925A680192019A5A6952064DD5E16B4C
:104860000A68526892B2002ADFD0A08D9042DCD94B
:10487000E2858A69202A36D003F10C0252E8002F23
:1048800022F4807203F10C0040E800210029F3D1EA
:1048900003F1140252E8002F22F0010203F1140088
:1048A00040E800210029F3D103F1140252E8002F5F
:1048B00022F0400203F1140040E800210029F3D166
:1048C000202284F84220216303F10C0252E8002FD9
:1048D00022F0100203F10C0040E800210029F3D17E
:1048E000E06BFDF7ABFE02236363E38DA18DC91A74
:1048F00089B22046FFF7CFFE97E7E28DE08DA18DCC
:1049000080B292B2002890D0891A89B200298CD046
:1049100003F10C0252E8002F22F4907203F10C050F
:1049200045E800200028F3D103F1140252E8002FDB
:1049300022F0010203F1140545E800200028F3D11C
:10494000202284F84220206303F10C0252E8002F59
:1049500022F0100203F10C0545E800200028F3D1F5
:1049600002236363C5E7160628D50D0626D594F8FD
:104970004120212A7FF459AFA168226AB1F5805FF6
:1049800017D12169A9B932F8021BC1F30801596096
:104990002262E28C013A92B2E284002A7FF445AFAF
:1049A000DA6822F08002DA60DA6842F04002DA6007
:1049B0003BE7511C216212785A60EAE750067FF506
:1049C00034AF4A067FF531AFDA68204622F0400264
:1049D000DA60202384F84130FFF7F0FD25E700BFBF
:1049E000BF4500080023C2854364222382850269F3
:1049F00080F84230816203681AB1DA6842F480724A
:104A0000DA605A69002042F001025A61DA6842F025
:104A10002002DA60704770B490F84260202E06D110
:104A200041B13AB10024046370BCFFF7DBBF022040
:104A300070BC70470120FBE708B500F041FA002088
:104A400008BD70B5054646690B46D0E900102A69D5
:104A5000B5F9084086B076B1AD6965B1842C0CBF5C
:104A600000240334CDE90165009400F0C2F90590FB
:104A7000059806B070BD842C0CBF0024033405AD2E
:104A8000CDE9004592B200F0ECF90128F0D0002009
:104A9000EFE708B5012838BF012000F061FB0020D6
:104AA00008BD4FF0FF3200F10803C0E90223436064
:104AB000036100230360704700230361704743686C
:104AC0009A684B608A60516099600368086101339D
:104AD0000360704730B50C68631C0AD103695A68DB
:104AE0004A6091608B60596003680861013303601C
:104AF00030BD00F10802134652681568A542FAD984
:104B0000EDE70369D0E901128A605160596881427A
:104B100008BF5A60002202611A68013A1A601868D8
:104B2000704700002DE9F041044600F0DBFB2F4BFD
:104B30002F4E1A682F4F01321A603568002D4AD166
:104B400034601B68012B1FD1B84640460135FFF782
:104B5000A8FF072D08F11408F7D1DFF89C80274D36
:104B60004046FFF79EFF2846FFF79BFF2448FFF7CC
:104B700098FF2448FFF795FF2348FFF792FF234B48
:104B8000C3F80080224B1D60224A2349136808683D
:104B9000013313600123E26A9340034314200B6046
:104BA00000FB0270211DFFF78AFF00F0BBFB1B4BCF
:104BB0001B6873B13368DA6AE36A9A4209D24FF02C
:104BC000E0234FF08052C3F8042DBFF34F8FBFF3A3
:104BD0006F8FBDE8F081114B1A68E36A002AD3D1C8
:104BE0003268D26A9A4298BF3460CDE70408002048
:104BF00004090020780800206408002050080020E4
:104C00003408002020080020080800204C0800205C
:104C100048080020E8070020FC070020F8070020D3
:104C2000F8B51A4B1A4D06461C6828680F46043022
:104C3000FFF767FF40B92A681649D06A01220B685E
:104C4000824023EA02030B60731C07D137B1296845
:104C500011480431BDE8F840FFF731BF2B68A419B3
:104C60005C6007D30D4B18682968BDE8F840043133
:104C7000FFF730BF0A4B186829680431FFF72AFF95
:104C8000084B1A68A24288BF1C60F8BD00080020CB
:104C900004090020FC070020080800204808002024
:104CA0004C080020E4070020064A13681968064BE8
:104CB00019B94FF0FF321A6070471268D268D26893
:104CC0005268F8E74C080020E407002010B590F87F
:104CD000513004463BB9006B00F09AFC2046BDE819
:104CE000104000F095BC012BF9D0022B08D04FF0FA
:104CF000500383F31188BFF36F8FBFF34F8FFEE72D
:104D000010BD000080B5134C134F144D236873B9C8
:104D1000134B1B68012BF8D94FF0E0234FF0805262
:104D2000C3F8042DBFF34F8FBFF36F8FEDE700F093
:104D3000D9FAFB68DE68301DFFF7E3FE2B68013B04
:104D40002B602368013B236000F0ECFA3046FFF74C
:104D5000BDFFDBE71C08002020080020040800201D
:104D6000780800202DE9F04702F18042DDE909844E
:104D7000266B013A06EB82060746994626F007069F
:104D8000A1B34B1E04F133020F3113F8010F02F8E7
:104D9000010F08B18B42F8D1002384F84330089DFD
:104DA0004FF0000A062D28BF0625201DE562656428
:104DB000C4F848A0FFF780FEC5F1070504F118000C
:104DC000FFF77AFEC4F84CA04A46394630462461C3
:104DD000A561646284F850A000F060FA2060B8F128
:104DE000000F01D0C8F80040BDE8F08784F8341007
:104DF000D5E770B586B0DDE90B5445B94FF05003E7
:104E000083F31188BFF36F8FBFF34F8FFEE744B971
:104E10004FF0500383F31188BFF36F8FBFF34F8FB1
:104E2000FEE754260596059E542E08D04FF05003F9
:104E300083F31188BFF36F8FBFF34F8FFEE72563B6
:104E4000022584F8515004AD01950A9D0294009505
:104E5000059EFFF787FF2046FFF764FE049806B023
:104E600070BD2DE9F043074685B090008846164690
:104E7000994600F035FB054620B94FF0FF3005B0EC
:104E8000BDE8F083542000F02BFB044698B10023CA
:104E900080F851300D9B056301930C9B32464146CF
:104EA0000290009338464B46FFF75CFF2046FFF721
:104EB00039FE0120E3E7284600F0AAFBDDE7000009
:104EC00010B5002488B007AA06A905A8CDE90544B5
:104ED000FCF7A2F8059B079A0293069B0F49CDE9C0
:104EE00000430F482346FFF784FFA8B14FF050035B
:104EF00083F31188BFF36F8FBFF34F8F4FF0FF32F3
:104F0000084B1A600122084B1A60084B1C6008B05D
:104F1000BDE8104000F066BA08B010BD9557000813
:104F2000054D0008E4070020F807002000080020D5
:104F3000024A136801331360704700BFE007002086
:104F4000414B2DE9F74F1B68002B76D13F4B1C6876
:104F500001341C60BCB93E4B1A68126842B14FF074
:104F6000500383F31188BFF36F8FBFF34F8FFEE7BA
:104F7000384A1968106818601160374A136801339D
:104F80001360FFF791FE354D4FF0000B2B68344E48
:104F90009C42344F12D214213A68D26A4A43B25822
:104FA000022A314A28BF4FF0010B1268002A18BFAD
:104FB0004FF0010B584603B0BDE8F08FDFF890A02A
:104FC000DFF8A890DAF8002012681AB94FF0FF3223
:104FD0002A60E0E7DAF80020D268D2F80C80D8F82E
:104FE00004108C4201D22960D5E708F10403184669
:104FF0000193FFF786FDD8F8281019B108F11800C1
:10500000FFF77FFD01224FF0140CD8F82C00D9F8DF
:10501000003002FA00F119430CFB0060C9F80010DF
:1050200008F10401FFF74BFD3868D8F82C10C26A6C
:10503000914228BF4FF0010BC4E70D4A4FF0000B1F
:10504000136801331360B5E7E00700200008002073
:105050004C08002048080020EC070020E40700204E
:105060007808002004090020F0070020FC07002039
:10507000F40700202DE9F843314C236843B94FF081
:10508000500383F31188BFF36F8FBFF34F8FFEE799
:1050900000F028F92368013B236024682CB1002428
:1050A00000F040F92046BDE8F883264B1B68002B32
:1050B000F5D0254D254EDFF898801FE0EB680127DD
:1050C000DC6804F1040904F11800FFF71AFD4846F2
:1050D000FFF717FD1420E26A316807FA02F30B4369
:1050E00000FB028049463360FFF7E9FC194BE26A96
:1050F0001B68DB6A9A4201D3174B1F602B68002B99
:10510000DCD10CB1FFF7D0FD144D2C6844B1012760
:10511000114EFFF715FF00B13760013CF9D12C604B
:105120000D4B1B68002BBAD04FF0E0234FF080529C
:10513000C3F8042DBFF34F8FBFF36F8F0124AFE788
:10514000E00700200408002034080020FC070020AD
:105150007808002004090020F0070020F407002050
:1051600008B550B94FF0E0234FF08052C3F8042D3A
:10517000BFF34F8FBFF36F8F08BD0A4B196841B162
:105180004FF0500383F31188BFF36F8FBFF34F8F3E
:10519000FEE7FFF7CDFEFFF743FDFFF76BFF0028AB
:1051A000E0D0E9E7E0070020174B10B51A68174B6D
:1051B00012B101221A6010BD1A60154B1A68B2FABA
:1051C00082F21423D2B2C2F11F0253431149CC58C8
:1051D000C81844B94FF0500383F31188BFF36F8FA1
:1051E000BFF34F8FFEE74468083364680B449C426A
:1051F00008BF6368446008BF4360142303FB0211C7
:105200004B68DA68044BD5E7E0070020F007002080
:10521000FC0700207808002004090020054B1B68CB
:1052200033B1054B1868B0FA80F040094000704770
:1052300001207047F8070020E007002006480068BA
:10524000006880F3088862B661B6BFF34F8FBFF382
:105250006F8F00DF00BF000008ED00E0002382B088
:1052600001930D4B1B68013308D04FF0500383F3BB
:105270001188BFF36F8FBFF34F8FFEE74FF05003DE
:1052800083F31188BFF36F8FBFF34F8F019B002B08
:10529000FCD002B0704700BF180000204FF08073B0
:1052A00040F8043C054B21F0010140F8081C40F88F
:1052B0000C3C40F8202C4038704700BF5D5200087D
:1052C000074B19680868B0E8F00F80F30988BFF34E
:1052D0006F8F4FF0000080F311884EF00D0E704775
:1052E000040900204FF0500383F31188BFF36F8F40
:1052F000BFF34F8F0A4A13680133012B13600ED19D
:105300004FF0E023D3F8043DDBB243B14FF050033C
:1053100083F31188BFF36F8FBFF34F8FFEE77047A2
:1053200018000020084A136843B94FF0500383F374
:105330001188BFF36F8FBFF34F8FFEE7013B136000
:105340000BB983F31188704718000020000000009B
:10535000EFF30980BFF36F8F0D4B1A6820E9F00F50
:1053600010602DE908404FF0500080F31188FFF7DE
:105370001BFF4FF0000080F31188BDE8084019685A
:105380000868B0E8F00F80F30988BFF36F8F7047AB
:105390000409002008B54FF0500383F31188BFF3D0
:1053A0006F8FBFF34F8FFFF7CBFD28B14FF0E02396
:1053B0004FF08052C3F8042D002383F3118808BDF9
:1053C0004FF0E02200234FF47A7113619361044B94
:1053D0001B68B3FBF1F3013B536107231361704773
:1053E0000C00002013B5274B1A78D2B20192FF228D
:1053F0001A701B78244ADBB28DF803309DF8033015
:1054000003F0500313700723204A13609DF8031024
:10541000136809060AD4032B11D04FF0500383F30D
:105420001188BFF36F8FBFF34F8FFEE7013B13600F
:105430009DF803305B00DBB28DF80330E6E74FF4F4
:1054400040731360019B0F4ADBB213704FF0E023EF
:105450000024D3F8202D42F47002C3F8202DD3F895
:10546000202D42F07042C3F8202DFFF7A9FF084B12
:105470001C60FFF7E3FEFFF797FE2046FFF7EEFE06
:1054800002B010BD00E400E00C0900200809002073
:105490001800002010B5104B1A461B688342FBD33E
:1054A00054681119884201BF4168104609195160BA
:1054B000446801198B420CD1084909688B4203D01A
:1054C00059682144416019689042016018BF10601A
:1054D00010BD1946F8E700BF280900202409002064
:1054E0002DE9F0410446FFF723FD4249424D0B6888
:1054F0000BBB424A56071FBFD01D20F0070002F524
:105500002052131A0CBF4FF42053024600201344BC
:105510003B4E083B23F0070370603260C3E9000094
:10552000981AC2E900300B60364B1860364B186091
:105530004FF000432B602E68264255D1002C46D0F8
:1055400004F1080360071CBF23F007030833002B96
:105550004AD02D4F3C689C4246D3294A156868685A
:10556000984204D2D5F800C0BCF1000F15D10968EB
:10557000A94239D02968D2F800801160C21A102AD5
:1055800012D9E81841070BD04FF0500383F311886C
:10559000BFF36F8FBFF34F8FFEE72A466546DEE706
:1055A00042606B60FFF776FF00236A681549A41A12
:1055B0001643164A08682B601368844203F10103FE
:1055C0003C6038BF0C606E6008F108041360FFF7A0
:1055D00051FD63070AD04FF0500383F31188BFF3E6
:1055E0006F8FBFF34F8FFEE70024F0E72046BDE842
:1055F000F08100BF2409002010090020300900209C
:10560000280900201C09002020090020180900207A
:1056100010B5044690B31A4A50F8043C126813427D
:1056200008D14FF0500383F31188BFF36F8FBFF39E
:105630004F8FFEE750F8081C41B14FF0500383F341
:105640001188BFF36F8FBFF34F8FFEE723EA02038A
:1056500040F8043CFFF76CFC0A4A54F8043C11681B
:10566000A4F108000B441360FFF714FFBDE81040DD
:10567000054A136801331360FFF7FCBC10BD00BF7F
:1056800010090020200900201409002003460244CC
:10569000934200D1704703F8011BF9E770B500266B
:1056A0000C4D0D4C641BA410A64209D100F01AF851
:1056B00000260A4D0A4C641BA410A64205D170BDF9
:1056C00055F8043B98470136EEE755F8043B9847F8
:1056D0000136F2E7C4570008C4570008C457000851
:1056E000C8570008F8B500BFF8BC08BC9E46704714
:0C56F000F8B500BFF8BC08BC9E4670472F
:1056FC008957000895110008000000000000000008
:10570C00800000000000000000000000815700082D
:10571C002D12000800000000000000000002000034
:10572C000000000000000000775700085913000823
:10573C0000000000000000008000000000000000DD
:10574C00000000006C5700086913000800000000FE
:10575C0000000000800000000000000000000000BD
:10576C006D6F646275735461736B00736B36307854
:10577C005461736B00626D735461736B0064656686
:10578C0061756C745461736B0049444C45000000A6
:10579C0000000102030400000000000000000102F0
:1057AC000304060708090102020304050607080999
:0857BC000A0B0C0D0E0F10107A
:0457C40035010008A3
:0457C80011010008C3
:1057CC0000002041020500010700000000127A00D1
:0C57DC000100000010000000AAAAAAAA08
:040000050800247556
:00000001FF
